:020000040800F2
:100000000000082411520008F91300080114000828
:100010000914000811140008191400080000000059
:10002000000000000000000000000000450700087C
:100030002114000800000000010700083106000834
:1000400061520008615200086152000861520008C4
:1000500061520008615200086152000861520008B4
:1000600061520008615200086152000861520008A4
:100070006152000861520008615200086152000894
:100080006152000861520008615200086152000884
:100090006152000861520008615200086152000874
:1000A00061520008311400086152000861520008D2
:1000B0006152000861520008615200086152000854
:1000C0006152000861520008615200086152000844
:1000D0006152000861520008615200086152000834
:1000E00061520008615200080000000061520008DF
:1000F0006152000861520008615200086152000814
:100100006152000861520008615200086152000803
:1001100061520008615200086152000861520008F3
:1001200061520008615200086152000861520008E3
:1001300061520008615200086152000861520008D3
:1001400000000000000000000000000000000000AF
:1001500061520008615200086152000861520008B3
:1001600061520008615200086152000861520008A3
:100170006152000861520008615200086152000893
:100180006152000861520008615200086152000883
:100190006152000861520008615200086152000873
:1001A0006152000861520008615200086152000863
:1001B0006152000861520008615200086152000853
:1001C0006152000861520008615200086152000843
:1001D0006152000861520008615200086152000833
:1001E0006152000861520008615200086152000823
:1001F0006152000861520008615200086152000813
:100200006152000861520008615200086152000802
:1002100061520008615200086152000861520008F2
:10022000615200086152000861520008000000009D
:10023000615200086152000800000000615200088D
:1002400061520008615200086152000861520008C2
:1002500061520008615200086152000861520008B2
:1002600061520008615200086152000861520008A2
:10027000615200086152000861520008000000004D
:10028000615200086152000861520008000000003D
:080290000000000061520008AB
:100298000348044B834202D0034B03B1184770470D
:1002A8001000002410000024000000000548064B40
:1002B8001B1AD90F01EBA301491002D0034B03B15C
:1002C80018477047100000241000002400000000A8
:1002D80010B5064C237843B9FFF7DAFF044B13B186
:1002E8000448AFF300800123237010BDD000002420
:1002F80000000000BC52000808B5054B1BB10549B9
:100308000548AFF30080BDE80840FFF7CFBF00BF46
:1003180000000000D4000024BC52000880B500AFE3
:100328000F4B1B785A1CD1B20D4A1170002B09D003
:100338000C4B01221A600A4B1B78013BDAB2084BBE
:100348001A700BE062B600BF00F094F872B600BFF6
:10035800034B1B78013BDAB2014B1A7080BD00BF1A
:10036800F0000024EC00002480B584B000AF786071
:1003780039604FF07C53FB604FF08543BB602A4BDC
:1003880000221A70294B00221A7001DF03F0D6FDF3
:1003980000F010FE00F0D0F800F070FF00F086FECC
:1003A80000F0CCFE00F038FF214B1B6800221A60D9
:1003B80000F09CF872B600BF97ED030A00F044F90C
:1003C8001B4B1B681B68002B0CBF01230023DBB2EF
:1003D8001A46164B1A7062B600BF62B600BF15E027
:1003E800134B1B681B68002B14BF01230023DBB2CF
:1003F8001A460D4B1A700C4B1B78DBB2002B05D03C
:100408000C4B1B680B4A23F001031360074B1B7846
:10041800DBB2002BE4D100F070F872B600BF002305
:1004280018461037BD4680BDF1000024F2000024B4
:10043800D452000810E000E080B483B000AF7860C8
:1004480039607B683A689A6100BF0C37BD465DF831
:10045800047B704780B483B000AF786039603B6834
:100468001A047B689A6100BF0C37BD465DF8047BAF
:100478007047000080B582B000AF1A4B1B68002B94
:1004880005DC184B1B68002B01DB012300E000236F
:100498007B60144B1B68002B03DD124B00221A6093
:1004A80004E0104B1B6801330E4A13600E4B3B608F
:1004B8007B68002B03D04FF480437B6001E000236E
:1004C8007B607B6819463868FFF7B6FF7B68DB43BB
:1004D80003F4804319463868FFF7BCFF00BF0837AC
:1004E800BD4680BDF40000240004025880B400AF6B
:1004F80000BFBD465DF8047B704780B400AF00BF05
:10050800BD465DF8047B704780B584B000AF786065
:1005180003F064FDF8607B68BB6000BF03F05EFD1C
:100528000246FB68D31ABA689A42F7D800BF00BFE0
:100538001037BD4680BD000080B400AF00BFBD4687
:100548005DF8047B704700BF80B483B000AF0346FA
:100558003960FB80B7F90630002B0ADB3B68DAB25A
:100568000C49B7F906301201D2B20B4483F80023C4
:100578000AE03B68DAB20849FB8803F00F03043B42
:100588001201D2B20B441A7600BF0C37BD465DF893
:10059800047B704700E100E000ED00E080B582B028
:1005A80000AF78607B68013BB3F1807F01D3012302
:1005B8000FE00A4A7B68013B53600F214FF0FF3080
:1005C800FFF7C2FF054B00229A60044B07221A600E
:1005D800002318460837BD4680BD00BF10E000E084
:1005E80080B500AFBFF34F8F00BFBFF36F8F00BF61
:1005F8000B4B1A680B4B1B689A4202D3084B00221C
:100608001A60074B1B685A1C05490A60002B05D164
:1006180072B600BFFFF782FE62B600BF00BF80BDA2
:10062800FC0000240001002480B400AF054B5B6887
:10063800044A43F08053536000BFBD465DF8047B15
:10064800704700BF00ED00E080B584B000AF87EDD3
:10065800010A234B1B6807EE903AB8EE677AD7ED8C
:10066800017A67EE277AFCEEE77A17EE903AFB609C
:10067800FB68B3F1807F18D3FB6807EE903AB8EEB9
:10068800677ADFED186AC7EE267AFCEEE77A17EE8E
:10069800903A0133144A1360134B1B68FA68B2FB93
:1006A800F3F31846FFF77AFF05E00F4B00221A60B4
:1006B800F868FFF773FF0D4B00221A600C4A0D4BC8
:1006C8001A600F216FF00400FFF73EFF0F216FF053
:1006D8000100FFF739FF00BF1037BD4680BD00BFDE
:1006E80008000024FFFF7F4B00010024FC000024C9
:1006F800E905000804010024EFF3008001B5EFF3D9
:10070800118003B41EF0100F08BFB0EE400A0A486B
:10071800006803B488B004A006904FF0807007907A
:100728006FF006008646704703BC8047BFF36F8FA3
:1007380000DFFEE700BF0000040100241EF0100FD8
:1007480008BFB0EE400A1EF0040F0CBFEFF308809C
:10075800EFF30980816911F8020C10B101280DD05E
:100768000BE01EF0100F0CBF1AB008B003BC80F3EA
:10077800118803BC80F300880847FEE74EF6145141
:10078800CEF200010A6842F001020A607047F4E7FD
:1007980000BF00BF80B400AF054B1B68044A43F498
:1007A8008023136000BFBD465DF8047B704700BF1F
:1007B8000044025880B400AF054B1B68044A43F458
:1007C8008033136000BFBD465DF8047B704700BFEF
:1007D8000044025880B400AF074B1B6803F4003391
:1007E800B3F5003F01D1012300E000231846BD46C0
:1007F8005DF8047B704700BF0044025880B400AF26
:10080800054B1B68044A43F00103136000BFBD4653
:100818005DF8047B704700BF0044025880B400AF05
:10082800064B1B6803F00403042B01D1012300E0ED
:1008380000231846BD465DF8047B70470044025803
:1008480080B483B000AF7860064B1B6823F01802B1
:1008580004497B6813430B6000BF0C37BD465DF845
:10086800047B70470044025880B483B000AF7860BE
:100878000F4B1B6803F07043B3F1805F09D10D4B38
:100888005B6823F47C327B681B030A4913434B6083
:1008980008E0084B5B6823F0FE427B681B060549AD
:1008A80013434B6000BF0C37BD465DF8047B7047AF
:1008B8000010005C0044025880B483B000AF786038
:1008C800064B1B6923F0070204497B6813430B613D
:1008D80000BF0C37BD465DF8047B704700440258E2
:1008E80080B400AF044B1B6903F038031846BD46BB
:1008F8005DF8047B704700BF0044025880B483B0A1
:1009080000AF7860064B9B6923F4706204497B68EA
:1009180013438B6100BF0C37BD465DF8047B7047FD
:100928000044025880B483B000AF7860064B9B69DE
:1009380023F00F0204497B6813438B6100BF0C3717
:10094800BD465DF8047B70470044025880B483B00C
:1009580000AF7860064BDB6923F0700204497B68BE
:100968001343CB6100BF0C37BD465DF8047B70476D
:100978000044025880B483B000AF7860064BDB694E
:1009880023F4E06204497B681343CB6100BF0C3752
:10099800BD465DF8047B70470044025880B483B0BC
:1009A80000AF7860064B9B6923F0700204497B68AE
:1009B80013438B6100BF0C37BD465DF8047B70475D
:1009C8000044025880B483B000AF7860064B1B6ABD
:1009D80023F0700204497B6813430B6200BF0C3795
:1009E800BD465DF8047B70470044025880B485B06A
:1009F80000AF78607B68DAB2104B1344FB60FB6889
:100A08001A687B68190E7B681B0A03F01F0301FA3A
:100A180003F3DB431A407B681B0CD9B27B681B0AC3
:100A280003F01F0301FA03F31A43FB681A6000BFBF
:100A38001437BD465DF8047B704700BF4C4402582C
:100A480080B582B000AF78607868FFF7CFFF00BF4D
:100A58000837BD4680BD000080B483B000AF786021
:100A6800064B9B6A23F0030204497B6813438B629D
:100A780000BF0C37BD465DF8047B70470044025840
:100A880080B400AF054B1B68044A43F080731360C1
:100A980000BFBD465DF8047B704700BF00440258A4
:100AA80080B400AF074B1B6803F00073B3F1007FFD
:100AB80001D1012300E000231846BD465DF8047B00
:100AC800704700BF0044025880B400AF054BDB6A92
:100AD800044A43F40033D36200BFBD465DF8047B8B
:100AE800704700BF0044025880B483B000AF7860FC
:100AF800074BDB6A23F002027B685B00044913435F
:100B0800CB6200BF0C37BD465DF8047B704700BF61
:100B18000044025880B483B000AF7860074BDB6AAA
:100B280023F00C027B689B0004491343CB6200BF8F
:100B38000C37BD465DF8047B704700BF004402587F
:100B480080B483B000AF7860074B1A6B074B134033
:100B58007A68013A044913430B6300BF0C37BD465A
:100B68005DF8047B704700BF0044025800FEFFFF99
:100B780080B483B000AF7860074B9B6A23F47C7223
:100B88007B681B01044913438B6200BF0C37BD46C9
:100B98005DF8047B704700BF0044025880B483B0FE
:100BA80000AF7860074B1B6B23F47E427B68013BE8
:100BB8005B02044913430B6300BF0C37BD465DF865
:100BC800047B70470044025880B483B000AF78605B
:100BD800074B1B6B23F4FE027B68013B1B04044993
:100BE80013430B6300BF0C37BD465DF8047B7047A9
:100BF8000044025880B483B000AF7860074B1B6B89
:100C080023F0FE427B68013B1B06044913430B6338
:100C180000BF0C37BD465DF8047B7047004402589E
:100C280080B485B000AF78600A4BD3F8E02009495A
:100C38007B681343C1F8E030064BD3F8E0207B68AB
:100C48001340FB60FB6800BF1437BD465DF8047BAA
:100C5800704700BF0044025880B485B000AF786088
:100C68000A4BD3F8E82009497B681343C1F8E830F8
:100C7800064BD3F8E8207B681340FB60FB6800BF95
:100C88001437BD465DF8047B704700BF0044025826
:100C980080B487B000AF78603960184A3B6803F0C9
:100CA8000303023352F823203B681B0CDB4302EAA0
:100CB80003013B681B0C3B613B6993FAA3F3FB60A0
:100CC800FB687B617B69002B01D1202303E07B69F2
:100CD800B3FA83F3DBB203F01F037A689A4007483C
:100CE8003B6803F003030A43023340F8232000BFA4
:100CF8001C37BD465DF8047B704700BF00040058F0
:100D080080B483B000AF7860064B1B6823F00F02F5
:100D180004497B6813430B6000BF0C37BD465DF880
:100D2800047B70470020005280B400AF044B1B685E
:100D380003F00F031846BD465DF8047B704700BFFB
:100D48000020005280B483B000AF7860064BDB68A7
:100D580023F0070204497B681343CB6000BF0C37BC
:100D6800BD465DF8047B70470048025880B483B0E4
:100D780000AF7860064B9B6923F4404204497B68C6
:100D880013438B6100BF0C37BD465DF8047B704789
:100D98000048025880B400AF074B9B6903F4005326
:100DA800B3F5005F01D1012300E000231846BD46DA
:100DB8005DF8047B704700BF0048025880B483B0D8
:100DC80000AF78607B681B6843F001027B681A609B
:100DD80000BF0C37BD465DF8047B704780B483B014
:100DE80000AF78607B681B6823F000527B681A604C
:100DF80000BF0C37BD465DF8047B704780B489B0EE
:100E080000AF786039607B680833FB60FB6853E8A3
:100E1800003FBB60BB6823F060423B685B0713433D
:100E2800FB617B680833FA69BA617B617969BA69E1
:100E380041E800233B613B69002BE4D100BF00BFC0
:100E48002437BD465DF8047B704780B489B000AF95
:100E5800786039607B680833FB60FB6853E8003FC3
:100E6800BB60BB6823F060623B685B061343FB61B1
:100E78007B680833FA69BA617B617969BA6941E8C4
:100E880000233B613B69002BE4D100BF00BF24373E
:100E9800BD465DF8047B704780B483B000AF7860CE
:100EA8007B685B6823F490427B685A607B689B6828
:100EB80023F02A027B689A6000BF0C37BD465DF8B4
:100EC800047B704780B483B000AF78607B68DB69CF
:100ED80003F40013B3F5001F01D1012300E0002340
:100EE80018460C37BD465DF8047B704780B483B064
:100EF80000AF78607B68DB6903F48003B3F5800F8B
:100F080001D1012300E0002318460C37BD465DF8E7
:100F1800047B704780B485B000AFF860B9607A6030
:100F2800FB681968BB6803FB03F213465B001344B4
:100F3800DB4301EA0302BB6803FB03F3796801FBA7
:100F480003F31A43FB681A6000BF1437BD465DF807
:100F5800047B704780B485B000AFF860B9607A60F0
:100F6800FB68D968BB6803FB03F213465B001344B4
:100F7800DB4301EA0302BB6803FB03F3796801FB67
:100F880003F31A43FB68DA6000BF1437BD465DF807
:100F9800047B704780B483B000AF786039603B68E9
:100FA8001A047B689A6100BF0C37BD465DF8047B64
:100FB8007047000080B500AF0120FFF7A1FE00BF19
:100FC800FFF7B2FE0346012BFAD10220FFF7BAFE63
:100FD8004FF40040FFF7CAFE00BFFFF7DBFE0346F1
:100FE800002BFAD0FFF7D6FBFFF7E4FB00BFFFF7B3
:100FF800F1FB0346012BFAD1FFF700FC00BFFFF716
:101008000DFC0346012BFAD14020FFF72DFC0020F0
:10101800FFF716FC0220FFF71FFDFFF755FD032021
:10102800FFF778FD0020FFF75FFD0120FFF7A0FD27
:101038001820FFF785FD0220FFF7B0FD0420FFF719
:10104800C3FD0220FFF7D6FDFFF71AFD00BFFFF72B
:1010580027FD0346012BFAD10020FFF72DFC00BF26
:10106800FFF73EFC0346002BFAD10020FFF746FCB1
:101078000020FFF757FC0020FFF768FC0020FFF76F
:1010880079FC0020FFF78AFC0020FFF79BFC06484C
:1010980002F0B2FA0F2000F03BFB0346002B01D010
:1010A80000F0A0F900BF80BD0090D00380B582B0E9
:1010B80000AF1D4B1D4A1A6000233B7080237B70D4
:1010C800E123BB700023FB7000233B7100237B717D
:1010D800154A3B465360144B01221A72124B144AAC
:1010E800DA60114B134A1A610F4B40F2F4525A61FD
:1010F8000D4800F0C3FF0346002B01D000F072F941
:10110800342200210C4804F0A8F80B4B21221A6065
:10111800094B4FF440325A61074B00221A6100BF55
:101128000837BD4680BD00BF3C0100240080024056
:1011380070000024100000240801002480B58EB03F
:1011480000AF07F1180320220021184604F085F8A3
:101158003B4600221A605A609A60DA601A615A6146
:101168002A48FFF76DFC4FF48020FFF775FD082033
:10117800FFF756FD4FF440733B6002237B6000236A
:10118800BB600023FB6000233B6107237B613B4678
:1011980019461F4800F003FF0023BB614FF4E133F9
:1011A800FB6100233B6200237B620023BB620C23AC
:1011B800FB6200233B6300237B6307F11803194696
:1011C800144803F0A3FA00211248FFF717FE002184
:1011D8001048FFF73AFE0F48FFF700FE0D48FFF7EB
:1011E8005BFE0C48FFF7EAFD00BF0A48FFF76AFEFE
:1011F8000346002BF9D00748FFF778FE0346002B7B
:10120800F3D000BF00BF3837BD4680BD08000007D7
:10121800000C02580048004080B500AF154B164A34
:101228001A60144B09225A60124B0222DA60114BE1
:1012380000221A610F4B02229A610E4B0122DA61D9
:101248000C4B00221A620B4B00225A62094B0122F6
:101258009A62084B0122DA62064B00221A6305489B
:1012680003F0FEFA0346002B01D000F0BBF800BFE4
:1012780080BD00BFC40100240000084080B58AB0CA
:1012880000AF07F1180300221A605A609A60DA600A
:101298003B4600221A605A609A60DA601A615A6105
:1012A8000420FFF7BDFC8020FFF7BAFC0120FFF700
:1012B800B7FC0220FFF7B4FC0820FFF7B1FC402080
:1012C800FFF7AEFC1020FFF7ABFC44F201013648F3
:1012D800FFF760FE4FF480613448FFF75BFE0221A0
:1012E8003348FFF757FE4FF400533B6000237B6001
:1012F80000233B613B4619462E4800F050FE44F25D
:1013080001033B6001237B600023BB600023FB607B
:1013180000233B613B461946234800F040FE4FF44A
:1013280080633B6001237B600023BB600023FB607C
:1013380000233B613B4619461C4800F030FE02235F
:101348003B6001237B600023BB600023FB6000231C
:101358003B613B461946164800F021FE1649062017
:10136800FFF796FC8023BB610023FB6100233B62EF
:10137800012387F82430012387F82530012387F8D3
:10138800263007F11803184600F0F6FB00228021EA
:101398000A48FFF7DFFD002280210848FFF7BAFD61
:1013A80000BF2837BD4680BD00040258000C025813
:1013B8000010025800080258010000F000180258F6
:1013C80080B582B000AF78607B681B68044A93429E
:1013D80001D102F0EFFD00BF0837BD4680BD00BF58
:1013E8000000014080B400AF72B600BF00BFFDE747
:1013F80080B400AF00BFFDE780B400AF00BFFDE7D9
:1014080080B400AF00BFFDE780B400AF00BFFDE7C8
:1014180080B400AF00BFFDE780B400AF00BFBD4699
:101428005DF8047B7047000080B500AF024802F009
:10143800CFFE00BF80BD00BFCC05002480B483B0C0
:1014480000AF7860064B5B6D23F4401204497B685B
:1014580013434B6500BF0C37BD465DF8047B7047EE
:101468000044025880B400AF054BDB68044A43F0DF
:101478008073D36000BFBD465DF8047B704700BF32
:101488000048025880B483B000AF0A4BD3F8F43058
:10149800084A43F00203C2F8F430064BD3F8F4309C
:1014A80003F002037B607B6800BF0C37BD465DF824
:1014B800047B70470044025880B58EB000AF786056
:1014C80007F1240300221A605A609A60DA601A61F0
:1014D8007B681B68594A934240F0AB80584BD3F85D
:1014E800D830574A43F40043C2F8D830544BD3F8A5
:1014F800D83003F400433B623B6A514BD3F8D830F1
:101508004F4A43F48033C2F8D8304D4BD3F8D83023
:1015180003F48033FB61FB69494BD3F8D830484A60
:1015280043F40033C2F8D830454BD3F8D83003F42D
:101538000033BB61BB69424BD3F8E030404A43F00B
:101548000403C2F8E0303E4BD3F8E03003F0040364
:101558007B617B693A4BD3F8E030394A43F00103A9
:10156800C2F8E030364BD3F8E03003F001033B61BA
:101578003B69334BD3F8E030314A43F00203C2F8F9
:10158800E0302F4BD3F8E03003F00203FB60FB6838
:101598002B4BD3F8E0302A4A43F04003C2F8E0303E
:1015A800274BD3F8E03003F04003BB60BB6832231D
:1015B8007B620223BB620023FB6200233B630B2395
:1015C8007B6307F1240319461E4802F027FA862395
:1015D8007B620223BB620023FB6200233B630B2375
:1015E8007B6307F124031946174802F017FA4FF4F2
:1015F80000537B620223BB620023FB6200233B6330
:101608000B237B6307F124031946104802F006FAFE
:101618004FF420537B620223BB620023FB6200234A
:101628003B630B237B6307F124031946084802F048
:10163800F5F900BF3837BD4680BD00BF00800240C5
:1016480000440258000802580000025800040258DA
:101658000018025880B58AB000AF786007F114030B
:1016680000221A605A609A60DA601A617B681B6807
:10167800244A934241D14FF48010FFF7DFFEFFF771
:10168800F1FE214BD3F8E0301F4A43F00103C2F8C2
:10169800E0301D4BD3F8E03003F001033B613B69B8
:1016A8004FF4C8537B610223BB610023FB61002315
:1016B8003B620A237B6207F114031946134802F0C0
:1016C800ADF94FF400737B610023BB610023FB611C
:1016D80007F1140319460D4802F0A0F90A4BD3F894
:1016E800D830094A43F00063C2F8D830064BD3F823
:1016F800D83003F00063FB60FB6800BF2837BD46A5
:1017080080BD00BF00000840004402580000025895
:1017180080B58EB000AF78607B680F2B42D800226E
:101728007968192002F0E2FB192002F0F9FB234A3C
:101738007B681360224BD3F8F030214A43F0010351
:10174800C2F8F0301E4BD3F8F03003F00103BB6051
:10175800BB6807F10C0207F110031146184602F0A6
:101768001BF902F003F978637B6B164AA2FB03238B
:101778009B0C013B3B63144B144A1A60124B40F21A
:10178800E732DA60104A3B6B53600F4B00221A6154
:101798000D4B00229A600C4802F040FC0346002BD7
:1017A80007D101E0012305E0074802F099FC034650
:1017B80000E0012318463837BD4680BD00000024EC
:1017C8000044025883DE1B43CC050024000001407E
:1017D80080B483B000AF78604FF0B043D3F8802076
:1017E8004FF0B0417B681343C1F8803000BF0C371D
:1017F800BD465DF8047B704780B483B000AF786065
:101808004FF0B043D3F890204FF0B0417B681343BA
:10181800C1F8903000BF0C37BD465DF8047B7047B7
:1018280080B483B000AF78604FF0B043D3F8A02005
:101838004FF0B0417B681343C1F8A03000BF0C37AC
:10184800BD465DF8047B704780B483B000AF786014
:101858004FF0B043D3F880207B68DB434FF0B041B2
:101868001340C1F8803000BF0C37BD465DF8047BDB
:10187800704780B483B000AF78604FF0B043D3F8BE
:1018880090207B68DB434FF0B0411340C1F89030A3
:1018980000BF0C37BD465DF8047B704780B483B049
:1018A80000AF78604FF0B043D3F8A0207B68DB43EB
:1018B8004FF0B0411340C1F8A03000BF0C37BD460F
:1018C8005DF8047B704780B483B000AF78604FF058
:1018D800B043D3F884204FF0B0417B681343C1F87C
:1018E800843000BF0C37BD465DF8047B704780B478
:1018F80083B000AF78604FF0B043D3F894204FF036
:10190800B0417B681343C1F8943000BF0C37BD4623
:101918005DF8047B704780B483B000AF78604FF007
:10192800B043D3F8A4204FF0B0417B681343C1F80B
:10193800A43000BF0C37BD465DF8047B704780B407
:1019480083B000AF78604FF0B043D3F884207B6851
:10195800DB434FF0B0411340C1F8843000BF0C376F
:10196800BD465DF8047B704780B483B000AF7860F3
:101978004FF0B043D3F894207B68DB434FF0B0417D
:101988001340C1F8943000BF0C37BD465DF8047BA6
:10199800704780B483B000AF78604FF0B043D3F89D
:1019A800A4207B68DB434FF0B0411340C1F8A4305A
:1019B80000BF0C37BD465DF8047B704780B483B028
:1019C80000AF78604FF0B0431A684FF0B0417B68C1
:1019D80013430B6000BF0C37BD465DF8047B7047AE
:1019E80080B483B000AF78604FF0B0431A6A4FF00C
:1019F800B0417B6813430B6200BF0C37BD465DF8EE
:101A0800047B704780B483B000AF78604FF0B04378
:101A18001A6C4FF0B0417B6813430B6400BF0C375E
:101A2800BD465DF8047B704780B483B000AF786032
:101A38004FF0B0431A687B68DB434FF0B041134066
:101A48000B6000BF0C37BD465DF8047B704780B45F
:101A580083B000AF78604FF0B0431A6A7B68DB430D
:101A68004FF0B04113400B6200BF0C37BD465DF824
:101A7800047B704780B483B000AF78604FF0B04308
:101A88001A6C7B68DB434FF0B04113400B6400BF16
:101A98000C37BD465DF8047B704780B483B000AF57
:101AA80078604FF0B0435A684FF0B0417B681343F9
:101AB8004B6000BF0C37BD465DF8047B704780B4AF
:101AC80083B000AF78604FF0B0435A6A4FF0B0412E
:101AD8007B6813434B6200BF0C37BD465DF8047B3F
:101AE800704780B483B000AF78604FF0B0435A6C51
:101AF8004FF0B0417B6813434B6400BF0C37BD46C1
:101B08005DF8047B704780B483B000AF78604FF015
:101B1800B0435A687B68DB434FF0B04113404B60D9
:101B280000BF0C37BD465DF8047B704780B483B0B6
:101B380000AF78604FF0B0435A6A7B68DB434FF0E0
:101B4800B04113404B6200BF0C37BD465DF8047BC3
:101B5800704780B483B000AF78604FF0B0435A6CE0
:101B68007B68DB434FF0B04113404B6400BF0C3738
:101B7800BD465DF8047B704780B584B000AF7860DF
:101B88000023FB737B681B7B002B00F00B817B68B9
:101B98001B68002B54D07B685B7B03F00103002B90
:101BA80005D07B681B681846FFF712FE04E07B68C7
:101BB8001B681846FFF748FE7B685B7B03F002034F
:101BC800002B05D07B681B681846FFF77CFE04E0F5
:101BD8007B681B681846FFF7B2FE7B689B7B002B6F
:101BE8002ED07B689B7B032B1CD0032B25DC012B81
:101BF80002D0022B0BD020E07B681B681846FFF749
:101C080082FF7B681B681846FFF7D8FE18E07B68E0
:101C18001B681846FFF708FF7B681B681846FFF724
:101C28003CFF0DE07B681B681846FFF7C7FE7B6822
:101C38001B681846FFF731FF02E00123FB7300BF62
:101C48007B685B68002B54D07B685B7B03F00103E7
:101C5800002B05D07B685B681846FFF7CDFD04E0D4
:101C68007B685B681846FFF704FE7B685B7B03F0C4
:101C78000203002B05D07B685B681846FFF737FE28
:101C880004E07B685B681846FFF76EFE7B689B7B09
:101C9800002B2ED07B689B7B032B1CD0032B25DCD1
:101CA800012B02D0022B0BD020E07B685B68184622
:101CB800FFF73CFF7B685B681846FFF791FE18E06A
:101CC8007B685B681846FFF7C2FE7B685B6818464E
:101CD800FFF7F5FE0DE07B685B681846FFF780FEAE
:101CE8007B685B681846FFF7EAFE02E00123FB7396
:101CF80000BF7B689B68002B72D07B685B7B03F01E
:101D08000103002B05D07B689B681846FFF788FD08
:101D180004E07B689B681846FFF7C0FD7B685B7B27
:101D280003F00203002B05D07B689B681846FFF779
:101D3800F2FD04E07B689B681846FFF72AFE7B6883
:101D48009B7B002B4CD07B689B7B032B1CD0032BED
:101D580025DC012B02D0022B0BD020E07B689B688E
:101D68001846FFF7F6FE7B689B681846FFF74AFEA1
:101D780036E07B689B681846FFF77CFE7B689B68AB
:101D88001846FFF7AEFE2BE07B689B681846FFF706
:101D980039FE7B689B681846FFF7A3FE20E0012305
:101DA800FB731DE07B681B681846FFF74DFD7B68D9
:101DB8005B681846FFF75DFD7B689B681846FFF770
:101DC8006DFD7B681B681846FFF7B9FD7B685B688B
:101DD8001846FFF7C9FD7B689B681846FFF7D9FDD1
:101DE800FB7B18461037BD4680BD80B485B000AF78
:101DF800F860B9607A60FB681968BB6803FB03F296
:101E080013465B001344DB4301EA0302BB6803FB90
:101E180003F3796801FB03F31A43FB681A6000BFF8
:101E28001437BD465DF8047B704780B485B000AFB9
:101E3800F860B9607A60FB685A68BB68DB431A408F
:101E4800BB68796801FB03F31A43FB685A6000BF5B
:101E58001437BD465DF8047B704780B485B000AF89
:101E6800F860B9607A60FB689968BB6803FB03F2A5
:101E780013465B001344DB4301EA0302BB6803FB20
:101E880003F3796801FB03F31A43FB689A6000BF08
:101E98001437BD465DF8047B704780B485B000AF49
:101EA800F860B9607A60FB68D968BB6803FB03F225
:101EB80013465B001344DB4301EA0302BB6803FBE0
:101EC80003F3796801FB03F31A43FB68DA6000BF88
:101ED8001437BD465DF8047B704780B485B000AF09
:101EE800F860B9607A60FB68196ABB6803FB03F3A2
:101EF800BA6802FB03F3BA6803FB02F213461B013C
:101F08009B1ADB4301EA0302BB6803FB03F3B968CE
:101F180001FB03F3B96801FB03F3796801FB03F3E1
:101F28001A43FB681A6200BF1437BD465DF8047B8C
:101F3800704780B485B000AFF860B9607A60FB681C
:101F4800596ABB681B0ABA68120A02FB03F3BA682B
:101F5800120A02FB03F3BA68120A03FB02F21346E1
:101F68001B019B1ADB4301EA0302BB681B0AB96821
:101F7800090A01FB03F3B968090A01FB03F3B9680D
:101F8800090A01FB03F3796801FB03F31A43FB68B1
:101F98005A6200BF1437BD465DF8047B704780B5B0
:101FA80088B000AF786039603B681B683B613B696B
:101FB80093FAA3F3FB60FB687B617B69002B01D17B
:101FC800202303E07B69B3FA83F3DBB2FB6148E0CB
:101FD8003B681A680121FB6901FA03F31340BB61EE
:101FE800BB69002B3AD03B685B68012B03D03B6888
:101FF8005B68022B0ED13B689B681A46B969786802
:10200800FFF72BFF3B6819683B68DB681A4678685E
:10201800FFF70BFF3B681B691A46B9697868FFF739
:102028003CFF3B685B68022B11D1BB69FF2B07D8CB
:102038003B685B691A46B9697868FFF74EFF06E0A6
:102048003B685B691A46B9697868FFF772FF3B68B5
:102058005B681A46B9697868FFF7C7FEFB69013300
:10206800FB613B681A68FB6922FA03F3002BAFD1C6
:10207800002318462037BD4680BD000080B584B0D7
:1020880000AF78607B68002B01D10123C8E07B6832
:10209800DB6E002B02D17868FFF70EFA7B682322EB
:1020A800DA66614BD3F8F4305F4A43F00203C2F8B2
:1020B800F4305D4BD3F8F43003F00203BB60BB6827
:1020C8007B681B7A002B03D1002001F093FF03E00B
:1020D8004FF4000001F08EFF7B681B6803F5805306
:1020E8001B687A68126843F0010302F58052136096
:1020F80001F074FFF8600FE001F070FF0246FB6822
:10210800D31AB3F5FA7F07D97B6804225A677B682C
:10211800E022DA66012383E07B681B6803F58053BD
:102128001B6803F00103002BE6D1786800F0C2FABF
:1021380001F0ECFB03463D4AA2FB03239A0C7B68A3
:102148001B68013AC3F8DC20786800F015FA7B6850
:102158001B6803F58053D3F8003123F4E0137A6841
:10216800126843F4002302F58052C2F800317B68FC
:102178005B6903F00303002B07D07B6801225A67D1
:102188007B68E022DA6601234AE07B681B6803F576
:102198008053D3F80821264B13407A6852695100BE
:1021A8007A6812680B4302F58052C2F808317868E1
:1021B80000F0D8FA786800F01EFB7B685B6805338E
:1021C8001B781A027B685B6804331B7819467B68A6
:1021D8001B680A43C3F800237B685B6803331B78DA
:1021E8001A067B685B6802331B781B041A437B68FA
:1021F8005B6801331B781B021A437B685B681B789A
:1022080019467B681B680A43C3F804237B680022CD
:102218005A677B681022DA667B6810221A670023E7
:1022280018461037BD4680BD0044025883DE1B4364
:102238000180FFFF80B485B000AF786039603B68EB
:102248009A683B681B681A433B681B79DB061A438C
:102258003B681B7BDB051A433B685B7B9B051A438A
:102268003B689B7B5B051A433B68DB7B1B05134381
:102278003A68127C002A02D14FF4002200E00022C2
:1022880013433A68527C002A02D14FF4003200E02E
:1022980000221A433B689B7C1B041A433B685B691A
:1022A8001A433B689B691A433B681B7F1B031A430D
:1022B8003B685B7FDB0213433A68927F002A02D1B6
:1022C8004FF4806200E000221A433B68DB7F5B0228
:1022D80013433A6892F82020002A02D14FF4807202
:1022E80000E000221A433B685B6A1A433B6893F894
:1022F80028301B011A433B68DB6A1343FB607B6889
:102308001B681A68564B13407A681268F9680B43C1
:1023180013603B68DB6B5A063B6893F838301B0642
:102328001A433B6893F830309B041A433B6893F890
:1023380031305B0413433A6892F83220002A02D104
:102348004FF4803200E000221A433B685B6B134372
:10235800FB607B681B685A68424B13407A681268B6
:10236800F9680B4353603B6893F840301A023B68A6
:102378005B6C1343FB607B681B68DA683A4B13405D
:102388007A681268F9680B43D3603B6893F8543055
:102398005A003B681B6D13433A6892F84C20002A98
:1023A80001D1802200E000221A433B689B6C1B0489
:1023B8001343FB607B681B681A6F4FF60D7313405D
:1023C8007A681268F9680B4313673B6893F85630CC
:1023D8001A463B6893F855305B001343FB607B68F3
:1023E8001B68D3F8903023F003017B681B68FA68F8
:1023F8000A43C3F890207B681B68D3F8003D23F09C
:1024080072013B689A6D7B681B680A43C3F8002D0C
:102418003B68DB6D3A6892F86020002A01D14022BF
:1024280000E000221A433B6893F861301B011A430D
:102438003B6893F86230DB001343FB607B681B68E2
:10244800D3F8303D23F07B017B681B68FA680A43A8
:10245800C3F8302D00BF1437BD465DF8047B7047C4
:10246800838004000080F8C0F0FEFFFF80B485B0D0
:1024780000AF786039607B681B6803F580531A6881
:10248800384B13403A6811687A6812680B4302F5B2
:10249800805213603B681B791A033B689B681A4398
:1024A8003B681B7BDB031343FB607B681B6803F5FE
:1024B80080535A682C4B13407A681268F9680B43AA
:1024C80002F5805253603B685B7B1A043B681B6AC9
:1024D8001343FB607B681B6803F58053D3F8002126
:1024E800224B13407A681268F9680B4302F5805250
:1024F800C2F800313B681A693B681B7D1B011A430F
:102508003B685B7F1B031343FB607B681B6803F519
:102518008053D3F80421164B13407A681268F9687F
:102528000B4302F58052C2F804313B681B7FDA077F
:102538003B689B691343FB607B681B6803F580530A
:10254800D3F808210B4B13407A681268F9680B43DB
:1025580002F58052C2F8083100BF1437BD465DF855
:10256800047B7047FD87FFFFFE2FFFFF00C0FEFFC3
:10257800EFEFC0FFFFFFC07F80B5A4B000AF786069
:10258800012387F83B3000233B65002387F8493057
:10259800002387F84B30012387F83030012387F870
:1025A8005E30012387F83A30002387F8543001233E
:1025B80087F88C304FF400537B64002387F864302D
:1025C8000023BB66002387F88D30002387F88E3000
:1025D8004FF4C3633B66002387F8383000237B63DE
:1025E800012387F83D30002387F83E30002387F821
:1025F80048300023FB6700237B670023BB6500236B
:1026080087F86C30002387F88230012387F84A3036
:102618002023C7F88830012387F84C30002387F837
:102628005D304FF04053FB624FF480433B6400231E
:1026380087F839300223C7F88430002387F88030C0
:10264800002387F88130002387F85C30012387F85E
:102658003C3000233B67012387F8783007F12C03CF
:1026680019467868FFF7E6FD01233B7301233B61B8
:102678000023BB60002387F8243000237B750023E8
:102688003B754FF400133B6200233B774FF4001374
:10269800BB61002387F825304FF40673BB6207F14E
:1026A800080319467868FFF7E1FE00BF9037BD467A
:1026B80080BD000080B584B000AF78607B681B687F
:1026C800D3F80032FB60FB6823F47063FB6001F011
:1026D8001DF9B860BB681E4A934208D9BB681D4AF9
:1026E800934204D8FB6843F40073FB6027E0BB689F
:1026F800184A934208D9BB68174A934204D2FB6828
:1027080043F44073FB601AE0BB68134A934203D357
:10271800BB68124A934211D9BB68104A934208D940
:10272800BB680F4A934204D8FB6843F48073FB608C
:1027380005E0FB6843F48063FB6000E000BF7B6852
:102748001B68FA68C3F8002200BF1037BD4680BD79
:10275800FF2C3101BF0E160200879303FFE0F50539
:102768007FD1F00880B485B000AF78600023FB60AB
:102778001DE07B68D968FA6813465B001344DB00E8
:102788000B44BB60BB6800221A60BB6800225A6019
:10279800BB6800229A60BB680022DA60B9687B686F
:1027A800FA68063243F82210FB680133FB60FB68C5
:1027B800032BDED97B6800229A627B681B6803F5CD
:1027C80080531A460323C2F82C317B68DA687B6889
:1027D8001B6803F58053C3F814217B68DA687B68AB
:1027E8001B6803F58053C3F8202100BF1437BD468A
:1027F8005DF8047B704780B485B000AF7860002333
:10280800FB6024E07B681969FA6813465B0013448F
:10281800DB000B44BB60BB6800221A60BB68002267
:102828005A60BB6800229A60BB680022DA60BB6805
:1028380000221A61BB6800225A61BA687968FB688D
:1028480010339B000B445A60FB680133FB60FB6844
:10285800032BD7D97B6800225A657B6800229A65CA
:102868007B680022DA657B6800225A667B68002252
:102878001A667B681B6803F580531A460323C2F85F
:1028880030317B681A697B681B6803F58053C3F88D
:102898001C217B681B6903F148027B681B6803F5F0
:1028A8008053C3F8282100BF1437BD465DF8047B68
:1028B8007047000080B400AF074B1B6803F4003377
:1028C800B3F5003F01D1012300E000231846BD46BF
:1028D8005DF8047B704700BF0044025880B400AF25
:1028E800064B1B6803F00403042B01D1012300E00D
:1028F80000231846BD465DF8047B70470044025823
:1029080080B400AF044B1B6803F018031846BD469B
:102918005DF8047B704700BF0044025880B400AFE4
:10292800074B1B6803F48073B3F5807F01D1012343
:1029380000E000231846BD465DF8047B704700BFE1
:102948000044025880B400AF064B1B6F03F002032B
:10295800022B01D1012300E000231846BD465DF893
:10296800047B70470044025880B400AF044B1B69D5
:1029780003F038031846BD465DF8047B704700BF76
:102988000044025880B400AF044B9B6903F47063A1
:102998001846BD465DF8047B704700BF00440258E6
:1029A80080B400AF044B9B6903F00F031846BD4683
:1029B8005DF8047B704700BF0044025880B400AF44
:1029C800044BDB6903F070031846BD465DF8047BD1
:1029D800704700BF0044025880B400AF044BDB6965
:1029E80003F4E0631846BD465DF8047B704700BFFA
:1029F8000044025880B485B000AF78607B68DAB2D2
:102A08000E4B1344FB60FB681A687B68190E7B68E1
:102A18001B0A03F01F0301FA03F31A407B681B0A21
:102A280003F01F0322FA03F31A047B6813431846C2
:102A38001437BD465DF8047B704700BF4C4402580C
:102A480080B582B000AF78607868FFF7D3FF03469F
:102A580018460837BD4680BD80B400AF044B9B6A5A
:102A680003F003031846BD465DF8047B704700BFBA
:102A78000044025880B400AF074BDB6A03F480338C
:102A8800B3F5803F01D1012300E000231846BD467D
:102A98005DF8047B704700BF0044025880B400AF63
:102AA800074BDB6A03F40033B3F5003F01D1012380
:102AB80000E000231846BD465DF8047B704700BF60
:102AC8000044025880B400AF074BDB6A03F480234C
:102AD800B3F5802F01D1012300E000231846BD463D
:102AE8005DF8047B704700BF0044025880B400AF13
:102AF800064BDB6A03F00103012B01D1012300E03F
:102B080000231846BD465DF8047B70470044025810
:102B180080B400AF044B1B6BC3F3080301331846A2
:102B2800BD465DF8047B70470044025880B400AF8E
:102B3800044B9B6A1B0903F03F031846BD465DF82A
:102B4800047B70470044025880B400AF054B1B6BF0
:102B58005B0A03F07F0301331846BD465DF8047B2A
:102B6800704700BF0044025880B400AF054B1B6B90
:102B78001B0C03F07F0301331846BD465DF8047B48
:102B8800704700BF0044025880B400AF054B1B6B70
:102B98001B0E03F07F0301331846BD465DF8047B26
:102BA800704700BF0044025880B400AF044B5B6B11
:102BB800DB08C3F30C031846BD465DF8047B704779
:102BC8000044025880B400AF074B1B6803F0006351
:102BD800B3F1006F01D1012300E000231846BD4680
:102BE8005DF8047B704700BF0044025880B400AF12
:102BF800074BDB6A03F40023B3F5002F01D101234F
:102C080000E000231846BD465DF8047B704700BF0E
:102C18000044025880B400AF074BDB6A03F480130A
:102C2800B3F5801F01D1012300E000231846BD46FB
:102C38005DF8047B704700BF0044025880B400AFC1
:102C4800074BDB6A03F40013B3F5001F01D101231E
:102C580000E000231846BD465DF8047B704700BFBE
:102C68000044025880B400AF064BDB6A03F010033F
:102C7800102B01D1012300E000231846BD465DF862
:102C8800047B70470044025880B400AF044B9B6B30
:102C9800C3F3080301331846BD465DF8047B70474B
:102CA8000044025880B400AF044B9B6A1B0B03F02E
:102CB8003F031846BD465DF8047B70470044025840
:102CC80080B400AF054B9B6B5B0A03F07F030133B5
:102CD8001846BD465DF8047B704700BF00440258A3
:102CE80080B400AF054B9B6B1B0C03F07F030133D3
:102CF8001846BD465DF8047B704700BF0044025883
:102D080080B400AF054B9B6B1B0E03F07F030133B0
:102D18001846BD465DF8047B704700BF0044025862
:102D280080B400AF044BDB6BDB08C3F30C0318461D
:102D3800BD465DF8047B70470044025880B400AF7C
:102D4800074B1B6803F00053B3F1005F01D1012367
:102D580000E000231846BD465DF8047B704700BFBD
:102D68000044025880B400AF074BDB6A03F48003C9
:102D7800B3F5800F01D1012300E000231846BD46BA
:102D88005DF8047B704700BF0044025880B400AF70
:102D9800074BDB6A03F40003B3F5000F01D10123ED
:102DA80000E000231846BD465DF8047B704700BF6D
:102DB8000044025880B400AF074BDB6A03F080730D
:102DC800B3F1807F01D1012300E000231846BD46FE
:102DD8005DF8047B704700BF0044025880B400AF20
:102DE800074BDB6A03F48073B3F5807F01D10123BD
:102DF80000E000231846BD465DF8047B704700BF1D
:102E08000044025880B400AF044B1B6CC3F30803A2
:102E180001331846BD465DF8047B704700440258EC
:102E280080B400AF044B9B6A1B0D03F03F031846A8
:102E3800BD465DF8047B70470044025880B400AF7B
:102E4800054B1B6C5B0A03F07F0301331846BD4634
:102E58005DF8047B704700BF0044025880B400AF9F
:102E6800054B1B6C1B0C03F07F0301331846BD4652
:102E78005DF8047B704700BF0044025880B400AF7F
:102E8800054B1B6C1B0E03F07F0301331846BD4630
:102E98005DF8047B704700BF0044025880B400AF5F
:102EA800044B5B6CDB08C3F30C031846BD465DF8A6
:102EB800047B70470044025880B58AB002AF78603E
:102EC8000023FB610023BB61FFF7C6FD78617B69C6
:102ED800022B1FD07B69022B24D87B69002B03D0DF
:102EE8007B69012B0ED01DE0FFF7F8FC0346002B91
:102EF8001AD0FFF705FD0346DB08384A22FA03F328
:102F0800FB6111E0FFF70AFD0346002B0ED0344B9E
:102F1800FB610BE0FFF7CEFC0346002B08D0314BDA
:102F2800FB6105E000BF04E000BF02E000BF00E075
:102F380000BF7B6800221A607B6800225A607B68A9
:102F480000229A60FFF7F2FD3861FFF7E1FDF860B3
:102F5800FFF7CCFD0346002B02D0FFF725FEB86132
:102F68003B69002B35D0FFF785FD0346002B0CD0BD
:102F7800FFF7EAFD03460093BB69FA683969F86907
:102F880000F064F902467B681A60FFF787FD034684
:102F9800002B0CD0FFF7E8FD03460093BB69FA68E5
:102FA8003969F86900F052F902467B685A60FFF700
:102FB80089FD0346002B0CD0FFF7E6FD034600937E
:102FC800BB69FA683969F86900F040F902467B681C
:102FD8009A6000BF2037BD4680BD00BF0090D00377
:102FE80000093D0000127A0080B58AB002AF78600F
:102FF8000023FB610023BB61FFF72EFD78617B692D
:10300800022B1FD07B69022B24D87B69002B03D0AD
:103018007B69012B0ED01DE0FFF760FC0346002BF7
:103028001AD0FFF76DFC0346DB08384A22FA03F38F
:10303800FB6111E0FFF772FC0346002B0ED0344B06
:10304800FB610BE0FFF736FC0346002B08D0314B41
:10305800FB6105E000BF04E000BF02E000BF00E044
:1030680000BF7B6800221A607B6800225A607B6878
:1030780000229A60FFF716FE3861FFF705FEF86038
:10308800FFF7F0FD0346002B02D0FFF749FEB861B9
:103098003B69002B35D0FFF7A9FD0346002B0CD068
:1030A800FFF70EFE03460093BB69FA683969F869B1
:1030B80000F0CCF802467B681A60FFF7ABFD0346C8
:1030C800002B0CD0FFF70CFE03460093BB69FA688F
:1030D8003969F86900F0BAF802467B685A60FFF768
:1030E800ADFD0346002B0CD0FFF70AFE0346009304
:1030F800BB69FA683969F86900F0A8F802467B6884
:103108009A6000BF2037BD4680BD00BF0090D00345
:1031180000093D0000127A0080B58AB002AF7860DD
:103128000023FB610023BB61FFF796FC78617B6994
:10313800022B1FD07B69022B24D87B69002B03D07C
:103148007B69012B0ED01DE0FFF7C8FB0346002B5F
:103158001AD0FFF7D5FB0346DB08394A22FA03F3F6
:10316800FB6111E0FFF7DAFB0346002B0ED0354B6D
:10317800FB610BE0FFF79EFB0346002B08D0324BA8
:10318800FB6105E000BF04E000BF02E000BF00E013
:1031980000BF7B6800221A607B6800225A607B6847
:1031A80000229A60FFF73CFE3861FFF72BFEF860BB
:1031B800FFF714FE0346002B02D0FFF76FFEB8613D
:1031C8003B69002B38D0FB69002B35D0FFF7CAFDCF
:1031D8000346002B0CD0FFF731FE03460093BB6972
:1031E800FA683969F86900F031F802467B681A60B4
:1031F800FFF7CCFD0346002B0CD0FFF72FFE03464C
:103208000093BB69FA683969F86900F01FF802464B
:103218007B685A60FFF7CEFD0346002B0CD0FFF702
:103228002DFE03460093BB69FA683969F86900F016
:103238000DF802467B689A6000BF2037BD4680BD06
:103248000090D00300093D0000127A0080B487B0D6
:1032580000AFF860B9607A603B60FB6807EE903AAF
:10326800F8EE676ABB6807EE903AF8EE677A86EE82
:10327800A77A7B6807EE903AF8EE676A3B6807EE34
:10328800903AB8EE676ADFED105AC6EE257A76EE08
:10329800A77A67EE277AC7ED057A3B6A07EE903A78
:1032A800B8EE677AD7ED056AC6EE877AC7ED057A74
:1032B800D7ED057AFCEEE77A17EE903A18461C37F8
:1032C800BD465DF8047B70470000004690B587B0A6
:1032D80000AF786000237B617868FFF7B1FB034695
:1032E800624A934200F0A980604A934200F2AE809D
:1032F8005F4A934200F0A1805D4A934200F2A680A3
:103308005C4A934200F091805A4A934200F29E80B0
:10331800594A934200F08980574A934200F29680B6
:10332800564A934273D0554A934200F28F80544ACA
:1033380093426CD0524A934200F28880514A934299
:1033480058D0504A934200F281804F4A934251D05C
:103358004D4A93427AD84D4A93423ED04B4A9342C3
:1033680074D84B4A934238D0494A93426ED8494A56
:1033780093421AD0484A934268D100F095F804461F
:10338800FFF700FB03461B0A03F00F03434AD35C15
:1033980003F01F0324FA03F3184600F0E7F8034686
:1033A800184600F011F978615BE000F07DF80446FA
:1033B800FFF7E8FA03461B0A03F00F03374AD35C0A
:1033C80003F01F0324FA03F3184600F0CFF803466E
:1033D800184600F0E1F8786143E0FFF7F3FB034695
:1033E800002B35D007F108031846FFF7FDFDFB68F1
:1033F8007B612DE0FFF7A2FC0346002B2AD007F1E2
:1034080008031846FFF788FEFB687B6122E0FFF798
:1034180065FA0346002B1FD0FFF772FA0346DB0854
:103428001F4A22FA03F37B6116E0FFF777FA034697
:10343800002B13D01B4B7B6110E0FFF783FA034688
:10344800002B0DD04FF400437B6109E000BF08E07A
:1034580000BF06E000BF04E000BF02E000BF00E0DC
:1034680000BF7B6918461C37BD4690BD0803050799
:1034780008000507080304070800040708030307F2
:1034880008000307080302070800020708030107EA
:10349800080001070800000708030007D8520008C1
:1034A8000090D00300093D0080B584B000AF002330
:1034B800FB60FFF759FA0346182B4BD801A252F8C4
:1034C80023F000BF313500085D3500085D35000880
:1034D8005D3500085D3500085D3500085D3500087C
:1034E8005D350008433500085D3500085D35000886
:1034F8005D3500085D3500085D3500085D3500085C
:103508005D350008493500085D3500085D3500085F
:103518005D3500085D3500085D3500085D3500083B
:103528005D3500084F350008FFF7EAF90346DB0868
:103538000B4A22FA03F3FB600DE00A4BFB600AE03A
:10354800094BFB6007E03B461846FFF7B5FC3B68B4
:10355800FB6000E000BFFB6818461037BD4680BD21
:103568000090D00300093D0000127A0080B582B0B7
:1035780000AF7860FFF714FA034603F00F03054A1B
:10358800D35C03F01F037A6822FA03F3184608375E
:10359800BD4680BDD852000880B582B000AF7860C3
:1035A800FFF70CFA03461B0903F00703054AD35C2F
:1035B80003F01F037A6822FA03F318460837BD465A
:1035C80080BD00BFD852000880B582B000AF7860D7
:1035D800FFF702FA03461B0A03F00703054AD35C08
:1035E80003F01F037A6822FA03F318460837BD462A
:1035F80080BD00BFD852000880B483B000AF7860A7
:10360800044A7B68136000BF0C37BD465DF8047B35
:10361800704700BF0800002480B489B000AFB34BE6
:103628001B6903F03803182B00F2558101A252F8E8
:1036380023F000BFA1360008DF380008DF38000893
:10364800DF380008DF380008DF380008DF380008F6
:10365800DF380008C7360008DF380008DF38000800
:10366800DF380008DF380008DF380008DF380008D6
:10367800DF380008CD360008DF380008DF380008DA
:10368800DF380008DF380008DF380008DF380008B6
:10369800DF380008D3360008944B1B6803F020037A
:1036A800002B09D0914B1B68DB0803F00303904AF9
:1036B80022FA03F3BB6111E18D4BBB610EE18D4B27
:1036C800BB610BE18C4BBB6108E1884B9B6A03F043
:1036D80003037B61854B9B6A1B0903F03F033B6136
:1036E800824BDB6A03F00103FB60804B5B6BDB08FA
:1036F800C3F30C03FA6802FB03F307EE903AF8EE03
:10370800677AC7ED027A3B69002B00F0E1807B699C
:10371800022B00F083807B69022B00F2A1807B6979
:10372800002B03D07B69012B56D099E06F4B1B68A7
:1037380003F02003002B2DD06C4B1B68DB0803F033
:1037480003036B4A22FA03F37B607B6807EE903A27
:10375800F8EE676A3B6907EE903AF8EE677A86EE0C
:10376800A77A624B1B6BC3F3080307EE903AF8EE97
:10377800676A97ED026ADFED615AC6EE257A76EE42
:10378800A77AF7EE006A77EEA67A67EE277AC7ED92
:10379800077A87E03B6907EE903AF8EE677ADFED43
:1037A800586A86EEA77A514B1B6BC3F3080307EEE2
:1037B800903AF8EE676A97ED026ADFED505AC6EE66
:1037C800257A76EEA77AF7EE006A77EEA67A67EEA4
:1037D800277AC7ED077A65E03B6907EE903AF8EE7D
:1037E800677ADFED486A86EEA77A404B1B6BC3F316
:1037F800080307EE903AF8EE676A97ED026ADFED84
:103808003F5AC6EE257A76EEA77AF7EE006A77EE8B
:10381800A67A67EE277AC7ED077A43E03B6907EE99
:10382800903AF8EE677ADFED386A86EEA77A2F4B82
:103838001B6BC3F3080307EE903AF8EE676A97ED3F
:10384800026ADFED2E5AC6EE257A76EEA77AF7EEF3
:10385800006A77EEA67A67EE277AC7ED077A21E045
:103868003B6907EE903AF8EE677ADFED266A86EE56
:10387800A77A1E4B1B6BC3F3080307EE903AF8EECA
:10388800676A97ED026ADFED1D5AC6EE257A76EE75
:10389800A77AF7EE006A77EEA67A67EE277AC7ED81
:1038A800077A00BF114B1B6B5B0A03F07F030133E0
:1038B8003B603B6807EE903AB8EE677AD7ED076A47
:1038C800C6EE877AFCEEE77A17EE903ABB6105E020
:1038D8000023BB6102E0074BBB6100BFBB69184610
:1038E8002437BD465DF8047B704700BF004402588A
:1038F8000090D00300093D0000127A000000004645
:103908000024744C0024744A0024F44A80B582B020
:1039180000AFFFF781FE0246104B9B691B0A03F0BC
:103928000F030F49CB5C03F01F0322FA03F37B60FC
:103938000A4B9B6903F00F03094AD35C03F01F038A
:103948007A6822FA03F3074A1360074A7B68136010
:10395800044B1B6818460837BD4680BD0044025812
:10396800185300080C0000240800002480B500AF9C
:10397800FFF7CCFF0246064BDB691B0A03F007037F
:103988000449CB5C03F01F0322FA03F3184680BDF9
:10399800004402581853000880B483B000AF786020
:1039A80039607B683F221A601A4B1B6903F00702D3
:1039B8007B685A60174B9B6903F470627B689A6056
:1039C800144B9B6903F00F027B68DA60114B9B690B
:1039D80003F070027B681A610E4BDB6903F070021A
:1039E8007B685A610B4BDB6903F4E0627B689A6180
:1039F800084B1B6A03F070027B68DA61064B1B6890
:103A080003F00F023B681A6000BF0C37BD465DF833
:103A1800047B7047004402580020005280B489B0EB
:103A280000AF786039600023FB61894B7B6194E1CA
:103A38003B681A680121FB6901FA03F313403B61F3
:103A48003B69002B00F086813B685B6803F0030349
:103A5800012B05D03B685B6803F00303022B30D1D0
:103A68007B689B68BB61FB695B00032202FA03F376
:103A7800DB43BA691340BB613B68DA68FB695B00EA
:103A880002FA03F3BA691343BB617B68BA699A60A7
:103A98007B685B68BB610122FB6902FA03F3DB43C5
:103AA800BA691340BB613B685B681B0903F00102FC
:103AB800FB6902FA03F3BA691343BB617B68BA690D
:103AC8005A603B685B6803F00303032B17D07B68DD
:103AD800DB68BB61FB695B00032202FA03F3DB438B
:103AE800BA691340BB613B689A68FB695B0002FADC
:103AF80003F3BA691343BB617B68BA69DA603B6850
:103B08005B6803F00303022B23D1FB69DA087B68A7
:103B1800083253F82230BB61FB6903F007039B00AE
:103B28000F2202FA03F3DB43BA691340BB613B6817
:103B38001A69FB6903F007039B0002FA03F3BA69E9
:103B48001343BB61FB69DA087B680832B96943F83B
:103B580022107B681B68BB61FB695B00032202FAC9
:103B680003F3DB43BA691340BB613B685B6803F04E
:103B78000302FB695B0002FA03F3BA691343BB61F2
:103B88007B68BA691A603B685B6803F44033002BB2
:103B980000F0E0802F4BD3F8F4302E4A43F00203B4
:103BA800C2F8F4302B4BD3F8F43003F00203FB6077
:103BB800FB68294AFB699B08023352F82330BB6132
:103BC800FB6903F003039B000F2202FA03F3DB43B4
:103BD800BA691340BB617B68204A934252D07B6824
:103BE8001F4A934231D07B681E4A93422BD07B6890
:103BF8001D4A934225D07B681C4A93421FD07B689C
:103C08001B4A934219D07B681A4A934213D07B68A7
:103C1800194A93420DD07B68184A934207D07B68B3
:103C2800174A934201D109232DE00A232BE00823E8
:103C380029E0072327E0062325E0052323E00423C2
:103C480021E003231FE002231DE001231BE000BF46
:103C58008000005800440258000400580000025830
:103C68000004025800080258000C025800100258BC
:103C78000014025800180258001C0258002002586C
:103C8800002402580023FA6902F0030292009340CC
:103C9800BA691343BB613849FB699B080233BA69A7
:103CA80041F823204FF0B0431B68BB613B69DB43FD
:103CB800BA691340BB613B685B6803F48013002B4F
:103CC80003D0BA693B691343BB614FF0B042BB698B
:103CD80013604FF0B0435B68BB613B69DB43BA6973
:103CE8001340BB613B685B6803F40013002B03D0EF
:103CF800BA693B691343BB614FF0B042BB6953607B
:103D08007B695B68BB613B69DB43BA691340BB6194
:103D18003B685B6803F40033002B03D0BA693B6946
:103D28001343BB617B69BA695A607B691B68BB61D5
:103D38003B69DB43BA691340BB613B685B6803F4CA
:103D48008033002B03D0BA693B691343BB617B699D
:103D5800BA691A60FB690133FB613B681A68FB6941
:103D680022FA03F3002B7FF463AE00BF00BF2437B1
:103D7800BD465DF8047B70470004005880B485B0E8
:103D880000AF78607B6803F00703FB600B4BDB68D0
:103D9800BB60BA684FF6FF031340BB60FB681A02AA
:103DA800BB681A43064B1343BB60044ABB68D36025
:103DB80000BF1437BD465DF8047B704700ED00E096
:103DC8000000FA0580B400AF044BDB681B0A03F05F
:103DD80007031846BD465DF8047B704700ED00E018
:103DE80080B483B000AF0346FB80B7F90630002BE0
:103DF8000BDBFB8803F01F020749B7F906305B09A4
:103E0800012000FA02F241F8232000BF0C37BD461A
:103E18005DF8047B704700BF00E100E080B483B028
:103E280000AF03463960FB80B7F90630002B0ADB88
:103E38003B68DAB20C49B7F906301201D2B20B442A
:103E480083F800230AE03B68DAB20849FB8803F0EC
:103E58000F03043B1201D2B20B441A7600BF0C3791
:103E6800BD465DF8047B704700E100E000ED00E02E
:103E780080B489B000AFF860B9607A60FB6803F07D
:103E88000703FB61FB69C3F10703042B28BF042365
:103E9800BB61FB690433062B02D9FB69033B00E0D5
:103EA80000237B614FF0FF32BB6902FA03F3DA4368
:103EB800BB681A407B699A404FF0FF317B6901FA71
:103EC80003F3D9437B680B40134318462437BD4698
:103ED8005DF8047B704780B582B000AF7860786881
:103EE800FFF74CFF00BF0837BD4680BD80B586B0E0
:103EF80000AF0346B9607A60FB81FFF763FF786122
:103F08007A68B9687869FFF7B3FF0246B7F90E30E7
:103F180011461846FFF782FF00BF1837BD4680BD1F
:103F280080B582B000AF0346FB80B7F9063018466B
:103F3800FFF756FF00BF0837BD4680BD80B582B089
:103F480000AF0320FFF7C7FFFFF766FB0246154BDC
:103F58009B691B0A03F00F031349CB5C03F01F0393
:103F680022FA03F37B600F4B9B6903F00F030E4AA1
:103F7800D35C03F01F037A6822FA03F30B4A136039
:103F88000B4A7B6813600F20FDF7C2FB0346002B2A
:103F980001D0012302E0FDF775FA0023184608371F
:103FA800BD4680BD00440258185300080C00002488
:103FB8000800002480B400AF064B1B781A46064B55
:103FC8001B681344044A136000BFBD465DF8047BB8
:103FD800704700BF040000241806002480B400AF16
:103FE800034B1B681846BD465DF8047B704700BF4D
:103FF8001806002480B483B000AF7860064B5B6875
:1040080023F4600204497B6813434B6000BF0C37FC
:10401800BD465DF8047B70470004005880B582B047
:1040280000AF78607B68002B01D1012349E07B68F1
:1040380093F83D30DBB2002B06D17B68002283F871
:104048003C20786800F041F87B68022283F83D2024
:104058007B681A687B6804331946104600F000FA3A
:104068007B68012283F848207B68012283F83E2080
:104078007B68012283F83F207B68012283F8402077
:104088007B68012283F841207B68012283F8422063
:104098007B68012283F843207B68012283F844204F
:1040A8007B68012283F845207B68012283F846203B
:1040B8007B68012283F847207B68012283F83D2032
:1040C800002318460837BD4680BD80B483B000AFD2
:1040D800786000BF0C37BD465DF8047B7047000070
:1040E80080B485B000AF78607B6893F83D30DBB270
:1040F800012B01D0012354E07B68022283F83D2084
:104108007B681B68DA687B681B6842F00102DA602A
:104118007B681B68264A934222D07B681B68B3F1F0
:10412800804F1DD07B681B68224A934218D07B6859
:104138001B68214A934213D07B681B681F4A93422D
:104148000ED07B681B681E4A934209D07B681B68A7
:104158001C4A934204D07B681B681B4A934215D1C2
:104168007B681B689A68194B1340FB60FB68062B39
:1041780015D0FB68B3F5803F11D07B681B681A68BF
:104188007B681B6842F001021A6008E07B681B68C4
:104198001A687B681B6842F001021A6000E000BFE1
:1041A800002318461437BD465DF8047B704700BFEE
:1041B800000001400004004000080040000C0040DE
:1041C80000040140001800400040014007000100C1
:1041D80080B582B000AF78607B681B681B6903F00C
:1041E8000203022B22D17B681B68DB6803F0020301
:1041F800022B1BD17B681B686FF002021A617B6877
:1042080001221A777B681B689B6903F00303002B64
:1042180003D0786800F005F905E0786800F0F7F851
:10422800786800F008F97B6800221A777B681B68B9
:104238001B6903F00403042B22D17B681B68DB682D
:1042480003F00403042B1BD17B681B686FF0040286
:104258001A617B6802221A777B681B689B6903F4E2
:104268004073002B03D0786800F0DBF805E078682D
:1042780000F0CDF8786800F0DEF87B6800221A7745
:104288007B681B681B6903F00803082B22D17B6835
:104298001B68DB6803F00803082B1BD17B681B68CD
:1042A8006FF008021A617B6804221A777B681B6822
:1042B800DB6903F00303002B03D0786800F0B1F842
:1042C80005E0786800F0A3F8786800F0B4F87B6837
:1042D80000221A777B681B681B6903F01003102BF8
:1042E80022D17B681B68DB6803F01003102B1BD1FD
:1042F8007B681B686FF010021A617B6808221A77C6
:104308007B681B68DB6903F44073002B03D0786873
:1043180000F087F805E0786800F079F8786800F030
:104328008AF87B6800221A777B681B681B6903F090
:104338000103012B0ED17B681B68DB6803F00103C6
:10434800012B07D17B681B686FF001021A6178683E
:10435800FDF736F87B681B681B6903F08003802B28
:104368000ED17B681B68DB6803F08003802B07D1C4
:104378007B681B686FF080021A61786800F014F996
:104388007B681B681B6903F48073B3F5807F0ED1CB
:104398007B681B68DB6803F08003802B07D17B6890
:1043A8001B686FF480721A61786800F007F97B68FF
:1043B8001B681B6903F04003402B0ED17B681B6808
:1043C800DB6803F04003402B07D17B681B686FF064
:1043D80040021A61786800F038F87B681B681B692E
:1043E80003F02003202B0ED17B681B68DB6803F0E9
:1043F8002003202B07D17B681B686FF020021A610D
:10440800786800F0C7F800BF0837BD4680BD80B4A3
:1044180083B000AF786000BF0C37BD465DF8047B01
:10442800704780B483B000AF786000BF0C37BD46DA
:104438005DF8047B704780B483B000AF786000BF3C
:104448000C37BD465DF8047B704780B483B000AF7D
:10445800786000BF0C37BD465DF8047B70470000EC
:1044680080B485B000AF786039607B681B68FB60FA
:104478007B68404A934213D07B68B3F1804F0FD0DA
:104488007B683D4A93420BD07B683C4A934207D0F5
:104498007B683B4A934203D07B683A4A934208D1EF
:1044A800FB6823F07003FB603B685B68FA681343A2
:1044B800FB607B682F4A93421FD07B68B3F1804F23
:1044C8001BD07B682C4A934217D07B682B4A9342B7
:1044D80013D07B682A4A93420FD07B68294A9342BB
:1044E8000BD07B68284A934207D07B68274A9342BF
:1044F80003D07B68264A934208D1FB6823F44073B3
:10450800FB603B68DB68FA681343FB60FB6823F0D9
:1045180080023B685B691343FB607B68FA681A603A
:104528003B689A687B68DA623B681A687B689A62BB
:104538007B68104A93420FD07B68124A93420BD093
:104548007B68114A934207D07B68104A934203D094
:104558007B680F4A934203D13B681A697B681A63E8
:104568007B6801225A6100BF1437BD465DF8047BA1
:10457800704700BF000001400004004000080040F0
:10458800000C00400004014000400140004401408C
:104598000048014080B483B000AF786000BF0C379A
:1045A800BD465DF8047B704780B483B000AF786087
:1045B80000BF0C37BD465DF8047B704780B483B0FC
:1045C80000AF786000BF0C37BD465DF8047B7047CC
:1045D80080B483B000AF78607B681B6803F0010388
:1045E800012B01D1012300E0002318460C37BD46FA
:1045F8005DF8047B704780B483B000AF78603960A1
:104608007B68DB6A23F00F033A6892B21A437B682F
:10461800DA6200BF0C37BD465DF8047B704780B492
:1046280083B000AF786039607B685B6823F44052E0
:104638003B681A437B685A6000BF0C37BD465DF87B
:10464800047B704780B483B000AF786039607B68C2
:104658009B6823F440723B681A437B689A6000BFEA
:104668000C37BD465DF8047B7047000080B487B006
:1046780000AFF860B9607A603B607B680B2B3CD870
:104688003B6A002B39D03B68B3F5004F22D17B68D9
:10469800DBB21A461C4B53F82230BA68B2FBF3F36C
:1046A8005A003B6A5B081A443B6AB2FBF3F39BB2BD
:1046B8007B617A694FF6F07313403B617B695B0855
:1046C8009BB203F007033A6913433B61FB683A69FD
:1046D800DA6012E07B68DBB21A460B4B53F82230E3
:1046E800BA68B2FBF3F23B6A5B081A443B6AB2FB56
:1046F800F3F39BB21A46FB68DA6000BF1C37BD466D
:104708005DF8047B704700BFE852000880B586B0AA
:1047180002AF786039600123FB730023BB607868BF
:10472800FFF756FF0346002B7FD17B681A68414B81
:1047380013403A6891683A68126911433A685269B5
:1047480011433A68D2690A431A437B681A603B6886
:10475800DB6819467868FFF762FF3B689B69194672
:104768007868FFF76FFF7B68334A934204D1334878
:10477800FEF7ACFDB8603DE07B68314A934204D156
:104788003048FEF7A3FDB86034E07B682E4A9342B8
:1047980004D12C48FEF79AFDB8602BE07B682B4AC1
:1047A800934204D12748FEF791FDB86022E07B6868
:1047B800274A934204D12348FEF788FDB86019E0E0
:1047C8007B68244A934204D11C48FEF77FFDB860F9
:1047D80010E07B68204A934204D11A48FEF776FD20
:1047E800B86007E07B681D4A934203D11548FEF77D
:1047F8006DFDB860BB68002B11D03B685B68002B6F
:104808000DD00023FB733B681A683B68D9693B6885
:104818005B6800930B46B9687868FFF727FF3B6829
:104828001B6819467868FFF7E6FEFB7B18461037C9
:10483800BD4680BDF369FFEF001001400803000783
:10484800004400400800000700480040004C0040B9
:10485800005000400014014000780040007C0040F7
:10486800F0B58FB00AAF78607B68002B01D10123C7
:1048780016E17B681B68BB607B6893F8BD33DBB2CD
:10488800002B06D17B68002283F8BC237868FCF7EC
:10489800E1FE7B68032283F8BD23BB68DB6B03F46E
:1048A8008073002B02D17B6800221A617B681B6829
:1048B800184600F08BF97B681B683B607E686D4684
:1048C80006F110040FCC0FC50FCC0FC594E80300F8
:1048D80085E80300331D0ECB386800F009F903465C
:1048E800002B05D07B68022283F8BD230123D7E083
:1048F8007B681B680021184600F079F90023FB73D8
:104908004AE0FA7B79681346DB009B1A9B000B444C
:104918003D3301221A70FA7B79681346DB009B1A33
:104928009B000B443C33FA7B1A70FA7BFB7B98B2F2
:1049380079681346DB009B1A9B000B4442330246FE
:104948001A80FA7B79681346DB009B1A9B000B449C
:104958003F3300221A70FA7B79681346DB009B1AF2
:104968009B000B44443300221A60FA7B7968134693
:10497800DB009B1A9B000B44483300221A60FA7B29
:1049880079681346DB009B1A9B000B4450330022C6
:104998001A60FB7B0133FB73FA7B7B685B689A4286
:1049A800AFD30023FB7344E0FA7B79681346DB003E
:1049B8009B1A9B000B4403F2FD1300221A70FA7B2A
:1049C80079681346DB009B1A9B000B4403F5FE73C2
:1049D800FA7B1A70FA7B79681346DB009B1A9B00F6
:1049E8000B4403F2FF1300221A70FA7B796813460E
:1049F800DB009B1A9B000B4403F5017300221A602D
:104A0800FA7B79681346DB009B1A9B000B4403F57D
:104A1800027300221A60FA7B79681346DB009B1A3E
:104A28009B000B4403F5047300221A60FB7B0133DF
:104A3800FB73FA7B7B685B689A42B5D37B681B681B
:104A48003B607E686D4606F110040FCC0FC50FCC95
:104A58000FC594E8030085E80300331D0ECB3868C2
:104A680000F012F90346002B05D07B68022283F878
:104A7800BD23012314E07B68002283F838207B687B
:104A8800012283F8BD237B685B6A012B02D1786819
:104A980000F00AF87B681B68184600F0CCFA00237F
:104AA80018461437BD46F0BD80B485B000AF7860B5
:104AB8007B681B68FB607B680122C3F8FC237B686A
:104AC800002283F8F423FB689B6943F00062FB68CB
:104AD8009A61FB685A6D054B1343FA6853650023C6
:104AE80018461437BD465DF8047B70470300001074
:104AF80084B080B584B000AF786007F11C0080E80E
:104B08000E003B6B012B20D17B689B6B23F480321A
:104B18007B689A637B68DA682A4B13407A68D360AB
:104B28007B68DB6823F440127B68DA60FB6C012B3E
:104B380005D17B68DB6843F480127B68DA607868AB
:104B480000F0A8FA0346FB731AE07B68DB6843F0C1
:104B580040027B68DA60786800F09CFA0346FB73D1
:104B68003B6C002B06D17B689B6B43F480327B68DF
:104B78009A6305E07B689B6B23F480327B689A63B9
:104B8800BB6A012B16D17B68DB6D9AB27B68DA654C
:104B98007B68DA6D0C4B13437A68D3657B689B6836
:104BA80043F006027B689A607B689B6843F02002AA
:104BB8007B689A60FB7B18461037BD46BDE880408D
:104BC80004B07047BFFFBDFF0000EE0380B483B0A0
:104BD80000AF78607B689B6823F001027B689A606D
:104BE800002318460C37BD465DF8047B704780B536
:104BF80084B000AF78600B46FB700023FB607B68D5
:104C0800DB6823F0C0427B68DA60FB78012B15D1A2
:104C18007B68DB6843F000527B68DA600120FBF7B1
:104C280073FCFB680133FB60786800F025FA0346E3
:104C3800012B1ED0FB68312BF0D91AE0FB78002B32
:104C480015D17B68DB6843F080427B68DA6001201D
:104C5800FBF75AFCFB680133FB60786800F00CFA3C
:104C68000346002B05D0FB68312BF0D901E0012366
:104C780005E0FB68322B01D1012300E00023184630
:104C88001037BD4680BD000084B080B586B000AF47
:104C9800786007F1240080E80E000023FB757B682C
:104CA800FB6000233B6109E07A683B6940339B0065
:104CB800134400225A603B6901333B613B690E2B68
:104CC800F2D9FB6C002B1CD1FB6803F500635B6811
:104CD800FA6802F5006243F0020353607B689B6B3D
:104CE80023F400127B689A637B681B6843F04002D8
:104CF8007B681A607B681B6843F080027B681A60D7
:104D080005E07B689B6B43F400127B689A63FB6841
:104D180003F560631A4600231360FB6803F500631C
:104D28001946FB6803F500631A460B681360BB6BF2
:104D3800012B0CD1FB6A002B04D10021786800F00C
:104D480061F908E00121786800F05CF903E00321CB
:104D5800786800F057F91021786800F0F3F80346F6
:104D6800002B01D00123FB75786800F01DF903467C
:104D7800002B01D00123FB75FB6803F500631A467D
:104D880000231361FB6803F500631A46002353618F
:104D9800FB6803F500631A460023D36100233B61D7
:104DA80043E03B695A01FB68134403F510631B6831
:104DB80003F00043B3F1004F18D13B69002B0AD12F
:104DC8003B695A01FB68134403F510631A464FF018
:104DD8000063136013E03B695A01FB68134403F551
:104DE80010631A464FF09043136008E03B695A017C
:104DF800FB68134403F510631A46002313603B69EC
:104E08005A01FB68134403F510631A460023136123
:104E18003B695A01FB68134403F510631A464FF6C1
:104E28007F3393603B6901333B617B6A3A699A42FD
:104E3800B7D300233B6143E03B695A01FB68134445
:104E480003F530631B6803F00043B3F1004F18D13A
:104E58003B69002B0AD13B695A01FB68134403F5EF
:104E680030631A464FF00063136013E03B695A0140
:104E7800FB68134403F530631A464FF09043136000
:104E880008E03B695A01FB68134403F530631A468E
:104E9800002313603B695A01FB68134403F5306330
:104EA8001A46002313613B695A01FB68134403F552
:104EB80030631A464FF67F3393603B6901333B6199
:104EC8007B6A3A699A42B7D3FB6803F500631B69AA
:104ED800FA6802F5006223F4807313617B6800228C
:104EE8009A617B686FF080425A613B6B002B05D159
:104EF8007B689B6943F010027B689A617B689A69BA
:104F08000E4B13437A689361FB6B002B05D07B68CB
:104F18009B6943F008027B689A61FB6C012B05D101
:104F28007B689A69064B13437A689361FB7D184640
:104F38001837BD46BDE8804004B0704700383C8053
:104F48000400004080B485B000AF78603960002369
:104F5800FB60FB680133FB60124A934201D90323CB
:104F68001AE07B681B69002BF3DA0023FB603B68BF
:104F78009B0143F020027B681A61FB680133FB60E8
:104F8800084A934201D9032306E07B681B6903F0B2
:104F98002003202BF1D0002318461437BD465DF8B6
:104FA800047B7047400D030080B485B000AF786083
:104FB8000023FB60FB680133FB60114A934201D96F
:104FC800032317E07B681B69002BF3DA0023FB60DF
:104FD8007B6810221A61FB680133FB60084A934220
:104FE80001D9032306E07B681B6903F01003102B2B
:104FF800F1D0002318461437BD465DF8047B70478E
:10500800400D030080B485B000AF78600B46FB709C
:105018007B68FB60FB6803F500631A68FB78F96836
:1050280001F5006113430B60002318461437BD4691
:105038005DF8047B704780B485B000AF78607B680A
:10504800FB60FB6803F560631B68FA6802F5606241
:1050580023F003031360FB6803F500635B68FA68D9
:1050680002F5006243F00203536000231846143728
:10507800BD465DF8047B704780B483B000AF7860AC
:105088007B685B6903F0010318460C37BD465DF881
:10509800047B704780B485B000AF78600023FB6064
:1050A800FB680133FB60134A934201D903231AE0DA
:1050B8007B681B69002BF3DA0023FB607B681B69A4
:1050C80043F001027B681A61FB680133FB60094AFF
:1050D800934201D9032306E07B681B6903F00103AF
:1050E800012BF1D0002318461437BD465DF8047B28
:1050F800704700BF400D030080B400AF374BD3F8B2
:105108008830364A43F47003C2F88830344B1B6841
:1051180003F00F03062B07D8314B1B6823F00F034E
:105128002F4A43F0070313602E4B1B682D4A43F0A8
:10513800010313602B4B00221A612A4B1A68294974
:10514800294B13400B60264B1B6803F00803002B08
:1051580007D0234B1B6823F00F03214A43F00703B2
:105168001360204B00229A611E4B0022DA611D4B0E
:1051780000221A621B4B1D4A9A621A4B1C4ADA62B9
:10518800184B1C4A1A63174B00225A63154B194ACD
:105198009A63144B0022DA63124B164A1A64114BB5
:1051A80000225A640F4B1B680E4A23F480231360B5
:1051B8000C4B00221A66104B1A68104B1340B3F1BF
:1051C800005F02D20E4B01221A600E4B43F2D2024C
:1051D8001A6000BFBD465DF8047B704700ED00E033
:1051E80000200052004402587FEDF6EA0002020255
:1051F8000000FF01800201010010005C0000FFFFB9
:105208000881005100400052DFF834D0FFF774FFE6
:105218000C480D490D4A002302E0D458C450043309
:10522800C4188C42F9D30A4A0A4C002301E01360DF
:105238000432A242FBD300F019F8FBF795F8704747
:105248000000082400000024100000243053000847
:10525800D00000241C060024FEE7024403469342C3
:1052680000D1704703F8011BF9E7000070B50D4D38
:105278000D4C641BA4100026A64209D10B4D0C4C02
:1052880000F018F8641BA4100026A64205D170BDD2
:1052980055F8043B98470136EEE755F8043B984724
:1052A8000136F2E72853000828530008285300085D
:1052B8002C530008F8B500BFF8BC08BC9E467047E0
:0C52C800F8B500BFF8BC08BC9E4670475B
:1052D400F80000240000000001020304010203049A
:1052E4000607080901000000020000000400000095
:1052F40006000000080000000A0000000C00000086
:1053040010000000200000004000000080000000A9
:105314000001000000000000010203040102030474
:045324000607080967
:045328000103000875
:04532C00D90200089A
:1053300010000000010000000090D0030090D00396
:10534000000000000000000000000000000000005D
:10535000000000000000000000000000000000004D
:10536000000000000000000000000000000000003D
:10537000000000000000000000000000000000002D
:10538000000000000000000000000000000000001D
:10539000000000000000000000000000000000000D
:1053A00000000000000000000000000000000000FD
:1053B00000000000000000000000000000000000ED
:1053C00000000000000000000000000000000000DD
:1053D00000000000000000000000000000000000CD
:1053E00000000000000000000000000000000000BD
:1053F00000000000000000000000000000000000AD
:04000005080052118C
:00000001FF
