:020000040802F0
:1000000000060030D90D0208B1D90E0871030208AC
:1000100039D90E0831D90E0835D90E08DB0D020882
:10002000DB0D0208DB0D0208DB0D02082955140860
:10003000DB0D0208DB0D0208DB0D0208DB0D0208F8
:10004000DB0D0208DB0D0208DB0D0208DB0D0208E8
:10005000DB0D0208DB0D0208B9041508E5041508DC
:10006000110515083D05150869051508DD62140818
:1000700005631408316314085D6314088963140868
:10008000B1631408DD631408015F140869C90E0820
:10009000DB0D020879C90E08DB0D0208950515086D
:1000A000DB0D0208DB0D0208DB0D0208DB0D020888
:1000B000DB0D0208D1061508E50615086D6B14085E
:1000C0009D6B1408CD6B1408FD6B1408DB0D020842
:1000D000DB0D0208DB0D020881061508DB0D0208A6
:1000E000F9051508DB0D0208DB0D02080D071508E0
:1000F0001D07150831071508350715080964140888
:10010000DB0D02086D061508F9061508DB0D02085F
:1001100095061508DB0D0208DB0D0208DB0D020851
:10012000356414085D64140889641408B5641408FF
:10013000E1641408DB0D0208DB0D0208DB0D020888
:10014000DB0D0208DB0D0208DB0D0208DB0D0208E7
:10015000096514083565140861651408A9061508B1
:10016000DB0D0208DB0D0208DB0D0208DB0D0208C7
:10017000DB0D020815011508DB0D0208DB0D020876
:10018000DB0D0208DB0D0208BD061508DB0D0208B9
:1001900009751408DB0D0208DB0D0208DB0D0208EF
:1001A000DB0D0208DB0D0208DB0D0208DB0D020887
:1001B000DB0D0208DB0D0208DB0D0208DB0D020877
:1001C000DB0D0208DB0D0208DB0D0208DB0D020867
:1001D000DB0D020801011508DB0D0208DB0D02082A
:1001E000DB0D0208DB0D0208DB0D0208DB0D020847
:1001F000DB0D0208DB0D0208DB0D0208DB0D020837
:10020000DB0D0208DB0D0208DB0D0208DB0D020826
:10021000DB0D0208DB0D0208DB0D0208DB0D020816
:10022000DB0D0208DB0D0208DB0D0208DB0D020806
:10023000DB0D0208DB0D0208DB0D0208215F14084C
:10024000DB0D0208A9601408D1601408FD601408D1
:10025000296114085561140881611408AD611408FE
:10026000D9611408DB0D0208DB0D0208DB0D020862
:10027000DB0D0208DB0D0208DB0D0208DB0D0208B6
:10028000DB0D0208DB0D0208DB0D0208DB0D0208A6
:10029000DB0D0208DB0D0208DB0D0208DB0D020896
:1002A000DB0D0208DB0D0208DB0D0208DB0D020886
:1002B000DB0D0208DB0D0208DB0D0208DB0D020876
:1002C000DB0D0208DB0D0208DB0D0208DB0D020866
:1002D000DB0D0208DB0D0208DB0D0208DB0D020856
:1002E00005440208397D0208EDBD02085D250308BA
:1002F000658D0308114B0408D1D60408252706088C
:100300002D70080819760808E50409085D760908C3
:100310003D7E090879810908B91E0A08B9970A08BB
:10032000CD8B0B0819DD0B0855EA0B08EDCB0E0839
:10033000E1D00E0879EC0E080562100895E9100866
:1003400029321108399F110879CF1208290C130896
:100350008526130871621308957B130819A01308EA
:100360008DAA13083DDC13085DE2130800000000AD
:10037000EFF30383EFF30982EFF30881DFF814D082
:100380002DE9FE4F684600F0FFFFBDE8FE4F8D46A9
:10039000704700007C310030F1EE101AA0EC200A0A
:1003A00001607047A0EC108A704700BF81F00041E7
:1003B00002E000BF83F0004330B54FEA41044FEA4A
:1003C000430594EA050F08BF90EA020F1FBF54EAE5
:1003D000000C55EA020C7FEA645C7FEA655C00F081
:1003E000E2804FEA5454D4EB5555B8BF6D420CDD52
:1003F0002C4480EA020281EA030382EA000083EAD5
:10040000010180EA020281EA0303362D88BF30BD74
:1004100011F0004F4FEA01314FF4801C4CEA1131CA
:1004200002D0404261EB410113F0004F4FEA033329
:100430004CEA133302D0524263EB430394EA050FB4
:1004400000F0A780A4F10104D5F1200E0DDB02FA23
:100450000EFC22FA05F2801841F1000103FA0EF2B7
:10046000801843FA05F359410EE0A5F120050EF17D
:10047000200E012A03FA0EFC28BF4CF0020C43FAAE
:1004800005F3C01851EBE37101F0004507D54FF0BB
:10049000000EDCF1000C7EEB00006EEB0101B1F50B
:1004A000801F1BD3B1F5001F0CD349085FEA300051
:1004B0004FEA3C0C04F101044FEA445212F5800F5C
:1004C00080F09A80BCF1004F08BF5FEA500C50F1F9
:1004D000000041EB045141EA050130BD5FEA4C0CDC
:1004E000404141EB0101013C28BFB1F5801FE9D239
:1004F00091F0000F04BF01460020B1FA81F308BF5C
:100500002033A3F10B03B3F120020CDA0C3208DD27
:1005100002F1140CC2F10C0201FA0CF021FA02F102
:100520000CE002F11402D8BFC2F1200C01FA02F172
:1005300020FA0CFCDCBF41EA0C019040E41AA2BF97
:1005400001EB0451294330BD6FEA04041F3C1CDA5F
:100550000C340EDC04F11404C4F1200220FA04F07F
:1005600001FA02F340EA030021FA04F345EA030129
:1005700030BDC4F10C04C4F1200220FA02F001FAEB
:1005800004F340EA0300294630BD21FA04F029466D
:1005900030BD94F0000F83F4801306BF81F4801106
:1005A0000134013D4EE77FEA645C18BF7FEA655C79
:1005B00029D094EA050F08BF90EA020F05D054EA4B
:1005C000000C04BF1946104630BD91EA030F1EBF50
:1005D0000021002030BD5FEA545C05D14000494154
:1005E00028BF41F0004130BD14F580043CBF01F547
:1005F000801130BD01F0004545F0FE4141F470012D
:100600004FF0000030BD7FEA645C1ABF1946104607
:100610007FEA655C1CBF0B46024650EA013406BF08
:1006200052EA033591EA030F41F4002130BD00BFC7
:1006300090F0000F04BF0021704730B54FF4806484
:1006400004F132044FF000054FF0000150E700BF05
:1006500090F0000F04BF0021704730B54FF4806464
:1006600004F1320410F0004548BF40424FF0000151
:100670003EE700BF42004FEAE2014FEA31014FEA94
:1006800002701FBF12F07F4393F07F4F81F06051E3
:10069000704732F07F4208BF704793F07F4F04BF2E
:1006A00041F40021704730B54FF4607401F000450B
:1006B00021F000411CE700BF50EA010208BF70476B
:1006C00030B54FF000050AE050EA010208BF70475C
:1006D00030B511F0004502D5404261EB41014FF4C5
:1006E000806404F132045FEA915C3FF4D8AE4FF0CD
:1006F00003025FEADC0C18BF03325FEADC0C18BFB0
:10070000033202EBDC02C2F1200300FA03FC20FA00
:1007100002F001FA03FE40EA0E0021FA02F114444D
:10072000BDE600BF80F0004002E000BF81F0004164
:1007300042001FBF5FEA410392EA030F7FEA226C87
:100740007FEA236C6AD04FEA1262D2EB1363C1BF17
:10075000D218414048404140B8BF5B42192B88BF86
:10076000704710F0004F40F4000020F07F4018BFA9
:10077000404211F0004F41F4000121F07F4118BFC9
:10078000494292EA030F3FD0A2F1010241FA03FC71
:1007900010EB0C00C3F1200301FA03F100F0004359
:1007A00002D5494260EB4000B0F5000F13D3B0F121
:1007B000807F06D340084FEA310102F10102FE2A90
:1007C00051D2B1F1004F40EBC25008BF20F0010000
:1007D00040EA03007047490040EB0000013A28BF9F
:1007E000B0F5000FEDD2B0FA80FCACF1080CB2EB22
:1007F0000C0200FA0CF0AABF00EBC25052421843A0
:10080000BCBFD0401843704792F0000F81F4000144
:1008100006BF80F400000132013BB5E74FEA410317
:100820007FEA226C18BF7FEA236C21D092EA030F83
:1008300004D092F0000F08BF0846704790EA010FFD
:100840001CBF0020704712F07F4F04D1400028BF2A
:1008500040F00040704712F100723CBF00F500000C
:10086000704700F0004343F0FE4040F40000704742
:100870007FEA226216BF08467FEA236301464202EE
:1008800006BF5FEA412390EA010F40F48000704701
:100890004FF0000304E000BF10F0004348BF4042A7
:1008A0005FEA000C08BF704743F0964301464FF0E3
:1008B00000001CE050EA010208BF70474FF000033F
:1008C0000AE000BF50EA010208BF704711F0004380
:1008D00002D5404261EB41015FEA010C02BF844650
:1008E0000146002043F0B64308BFA3F18053A3F5AF
:1008F0000003BCFA8CF2083AA3EBC25310DB01FAF6
:1009000002FC634400FA02FCC2F12002BCF1004F79
:1009100020FA02F243EB020008BF20F0010070470A
:1009200002F1200201FA02FCC2F1200250EA4C005E
:1009300021FA02F243EB020008BF20EADC707047A4
:100940007BB972B90029BEBF00204FF0004106E01C
:1009500008BF00281CBF6FF000414FF0FF3000F0CF
:1009600039BAADF1080C6DE904CE002909DB002B82
:100970001ADB00F0C7F8DDF804E0DDE9022304B07B
:100980007047404261EB4101002B1BDB00F0BAF8DD
:10099000DDF804E0DDE9022304B0404261EB4101EF
:1009A000524263EB43037047524263EB430300F050
:1009B000A9F8DDF804E0DDE9022304B0404261EB70
:1009C00041017047524263EB430300F09BF8DDF8AE
:1009D00004E0DDE9022304B0524263EB43037047B5
:1009E00053B94AB9002908BF00281CBF4FF0FF3196
:1009F0004FF0FF3000F0EEB9ADF1080C6DE904CE18
:100A000000F080F8DDF804E0DDE9022304B070476F
:100A100030B1012390FAA0F0B0FA80F0184470478A
:100A200008460029FBD02123F4E700BF430803F068
:100A30005533C01A830803F0333300F033301844C1
:100A400000EB101000F00F3000EB002000EB004036
:100A5000000E704708B502460B4643EC172BB5EE67
:100A6000C07BF1EE10FA03D4BDE8084000F02AB8CC
:100A7000B1EE477B51EC170B00F024F8404261EBDC
:100A8000410108BD9FED0B6B07EE900A9FED0B5BDC
:100A9000B7EEE77A27EE066BBCEEC66BB8EE464BB8
:100AA000A4EE457BFCEEC77B16EE101A17EE900AFB
:100AB000704700BF000000000000F03D0000000093
:100AC0000000F0419FED0B6B41EC170B9FED0B5BB2
:100AD00027EE066BBCEEC66BB8EE464BA4EE457B2C
:100AE000FCEEC77B16EE101A17EE900A704700BF97
:100AF000AFF30080000000000000F03D00000000A7
:100B00000000F0412DE9F047089D04468E46002B79
:100B10004DD18A42944669D9B2FA82F252B101FAB1
:100B200002F3C2F1200120FA01F10CFA02FC41EAC1
:100B3000030E94404FEA1C48210CBEFBF8F61FFA46
:100B40008CF708FB16E341EA034306FB07F19942E1
:100B50000AD91CEB030306F1FF3080F01F81994294
:100B600040F21C81023E63445B1AA4B2B3FBF8F06E
:100B700008FB103344EA034400FB07F7A7420AD9F5
:100B80001CEB040400F1FF3380F00A81A74240F21D
:100B900007816444023840EA0640E41B00261DB188
:100BA000D4400023C5E900433146BDE8F0878B42BD
:100BB00009D9002D00F0EF800026C5E9000130467C
:100BC0003146BDE8F087B3FA83F6002E4AD18B4256
:100BD00002D3824200F2F980841A61EB0303012000
:100BE0009E46002DE0D0C5E9004EDDE702B9FFDEEC
:100BF000B2FA82F2002A40F09280A1EB0C014FEA97
:100C00001C471FFA8CFE0126200CB1FBF7F307FBF3
:100C1000131140EA01410EFB03F0884208D91CEB96
:100C2000010103F1FF3802D2884200F2CB80434633
:100C3000091AA4B2B1FBF7F007FB101144EA014412
:100C40000EFB00FEA64508D91CEB040400F1FF31A1
:100C500002D2A64500F2BB800846A4EB0E0440EA8F
:100C600003409CE7C6F12007B34022FA07FC4CEA98
:100C7000030C20FA07F401FA06F31C43F9404FEA8B
:100C80001C4900FA06F3B1FBF9F8200C1FFA8CFEA0
:100C900009FB181140EA014108FB0EF0884202FAF4
:100CA00006F20BD91CEB010108F1FF3A80F08880B5
:100CB000884240F28580A8F102086144091AA4B272
:100CC000B1FBF9F009FB101144EA014100FB0EFEF3
:100CD0008E4508D91CEB010100F1FF346CD28E4522
:100CE0006AD90238614440EA0840A0FB0294A1EBB3
:100CF0000E01A142C846A64656D353D05DB1B3EB10
:100D0000080261EB0E0101FA07F722FA06F3F1403F
:100D10001F43C5E9007100263146BDE8F087C2F1E6
:100D20002003D8400CFA02FC21FA03F3914001435E
:100D30004FEA1C471FFA8CFEB3FBF7F007FB103697
:100D40000B0C43EA064300FB0EF69E4204FA02F443
:100D500008D91CEB030300F1FF382FD29E422DD996
:100D6000023863449B1B89B2B3FBF7F607FB1633CB
:100D700041EA034106FB0EF38B4208D91CEB01014B
:100D800006F1FF3816D28B4214D9023E6144C91ACB
:100D900046EA004638E72E46284605E70646E3E6DB
:100DA0001846F8E64B45A9D2B9EB020864EB0C0EE5
:100DB0000138A3E74646EAE7204694E74046D1E7F4
:100DC000D0467BE7023B614432E7304609E76444A2
:100DD000023842E7704700BF02E000F000F8FEE78B
:100DE00072B6374880F30888364880F30988364859
:100DF0003649086040F20000CCF200004EF6347133
:100E0000CEF200010860BFF34F8FBFF36F8F40F247
:100E10000000C0F2F0004EF68851CEF200010860EA
:100E2000BFF34F8FBFF36F8F4FF00000E1EE100A5A
:100E30004EF63C71CEF200010860062080F3148863
:100E4000BFF36F8F2EF1D2FB29F104FC4FF0553028
:100E50001F491B4A91423CBF41F8040BFAE71D4968
:100E6000184A91423CBF41F8040BFAE71A491B4A61
:100E70001B4B9A423EBF51F8040B42F8040BF8E7B3
:100E800000201849184A91423CBF41F8040BFAE788
:100E90002EF1EAFB29F162FC144C154DAC4203DA49
:100EA00054F8041B8847F9E703F0EEF9114C124D92
:100EB000AC4203DA54F8041B8847F9E72EF1D2BBA1
:100EC00000060030002200300000020808ED00E0BB
:100ED00000000030000600301036190800220030F3
:100EE000882F0030882F00309C270230E002020853
:100EF0006C0302086C0302086C0302082DE9F04F32
:100F00002DED108AC1F80CD0D0F80CD0BDEC108AB1
:100F1000BDE8F08F002383F311882846A047002006
:100F200029F17EF9FEE728F1DDFF00DFFEE7000092
:100F300070B54FF0FF0C4CF4E06C1CEA11541DBF6F
:100F40001CEA135594EA0C0F95EA0C0F00F0DEF83A
:100F50002C4481EA030621EA4C5123EA4C5350EA1F
:100F6000013518BF52EA033541F4801143F4801370
:100F700038D0A0FB02CE4FF00005E1FB02E506F001
:100F80000042E0FB03E54FF00006E1FB03569CF056
:100F9000000F18BF4EF0010EA4F1FF04B6F5007F5C
:100FA00064F5407404D25FEA4E0E6D4146EB0606CE
:100FB00042EAC62141EA55514FEAC52040EA5E5057
:100FC0004FEACE2EB4F1FD0C88BFBCF5E06F1ED801
:100FD000BEF1004F08BF5FEA500E50F1000041EB38
:100FE000045170BD06F0004646EA010140EA0200E5
:100FF00081EA0301B4EB5C04C2BFD4EB0C0541EA07
:10100000045170BD41F480114FF0000E013C00F31B
:10101000AB8014F1360FDEBF002001F0004170BD3F
:10102000C4F10004203C35DA0C341BDC04F1140458
:10103000C4F1200500FA05F320FA04F001FA05F2E4
:1010400040EA020001F0004221F0004110EBD370B1
:1010500021FA04F642EB06015EEA430E08BF20EADD
:10106000D37070BDC4F10C04C4F1200500FA04F380
:1010700020FA05F001FA04F240EA020001F0004112
:1010800010EBD37041F100015EEA430E08BF20EA85
:10109000D37070BDC4F1200500FA05F24EEA020ECD
:1010A00020FA04F301FA05F243EA020321FA04F0FC
:1010B00001F0004121FA04F220EA020000EBD370B3
:1010C0005EEA430E08BF20EAD37070BD94F0000FB3
:1010D0000FD101F00046400041EB010111F4801FE7
:1010E00008BF013CF7D041EA060195F0000F18BF98
:1010F000704703F00046520043EB030313F4801FD4
:1011000008BF013DF7D043EA0603704794EA0C0F8D
:101110000CEA135518BF95EA0C0F0CD050EA4106A3
:1011200018BF52EA4306D1D181EA030101F0004120
:101130004FF0000070BD50EA410606BF1046194648
:1011400052EA430619D094EA0C0F02D150EA013654
:1011500013D195EA0C0F05D152EA03361CBF104695
:1011600019460AD181EA030101F0004141F0FE4134
:1011700041F470014FF0000070BD41F0FE4141F4B8
:10118000780170BD4FEA410212F5001215D211D557
:101190006FF47873B3EB625212D94FEAC12343F074
:1011A000004343EA505311F0004F23FA02F018BFF6
:1011B000404270474FF00000704750EA013005D1BF
:1011C00011F0004008BF6FF0004070474FF0000082
:1011D000704700BF4FEA4102B2F1E04324BFB3F5CC
:1011E000001CDCF1FE5C0DD901F0004C4FEAC0029E
:1011F0004CEA5070B2F1004F40EB830008BF20F082
:101200000100704711F0804F21D113F13872BCBF3B
:1012100001F00040704741F480114FEA5252C2F190
:101220001802C2F1200C10FA0CF320FA02F018BFD9
:1012300040F001004FEAC1234FEAD32303FA0CFC2C
:1012400040EA0C0023FA02F34FEA4303CCE77FEABB
:10125000625307D150EA01331EBF4FF0FE4040F405
:101260004000704701F0004040F0FE4040F40000B4
:10127000704700BF01F0FF01102A2BDB10F0070FB1
:1012800008D010F8013B013A8B422DD010F0070F27
:1012900042B3F6D1F0B441EA012141EA014122F022
:1012A00007047FF000070023F0E80256083C85EAB7
:1012B000010586EA010685FA47F5A3FA87F586FA5D
:1012C00047F6A5FA87F68EB9EED1F0BC01F0FF0122
:1012D00002F0070232B110F8013B013A83EA010340
:1012E00013B1F8D10020704701387047002D06BFB8
:1012F00035460338073815F0010F07D1013015F4D2
:10130000807F02BF013015F4C03F0130F0BC0138CE
:10131000704700BFEC46A0E8F05F4FF00000704758
:10132000B0E8F05FE546080008BF0120704700BF45
:1013300010F8012B11F8013B012A28BF9A42F7D07F
:10134000D01A7047034613F8012B002AFBD1181A54
:101350000138704710B5044620461CB154F80C3BC8
:10136000013300D110BD0822012100F069FB54F8BF
:101370000C0C54F8082C14F8041C121AB2FBF1F2ED
:1013800000F05EFBE8E70000C26AD0E9003112F02D
:10139000040F2DE9F04118BF0B46A6B00021594CAF
:1013A000042601270291CDE90003D0064CBF03F1CA
:1013B000200203F168020392DA690399D2099B695A
:1013C00002F004021B880A4303F47F4303924FF0A8
:1013D000E022A3F53E41D2F8882D02F4A002B2F536
:1013E000A00F04BF012202924B424B410493464D91
:1013F00003A82C6000F022FA04220121434800F0E7
:101400001FFB0422012102A800F01AFB1022012177
:10141000019800F015FB0098202201210C3000F00B
:101420000FFB019804220121103000F009FB042277
:10143000012103A800F004FB01980C2201211430C3
:1014400000F0FEFA0C220121009800F0F9FA029B4C
:10145000DA071FD5009BDB6ADB064ED415A8FEF722
:10146000A1FFDDF804C00DF1140E0CF120030CF106
:1014700060081868083353F8041C7246434503C2D9
:101480009646F6D1DCF8603025938422012105A828
:1014900000F0D6FA00F0C0F8FFF75CFF4FF0E02351
:1014A000D3F8003D03F47023B3F5402F0ED0184B52
:1014B00005A88DF81C60059314338DF828700693E9
:1014C0004FF0FF33CDE90833FFF744FF2B68A34209
:1014D00006D0104B0422012105A8059300F0B0FAB4
:1014E00000F022FA002882D0049B1BB1019A936974
:1014F0000233936126B0BDE8F08105A8FEF74CFFEA
:10150000C3E700BFED55CEAC882F0030C498150856
:1015100028ED00E0ACCE55ED37B50E4D2A78202AE7
:1015200015D10D4C0D4823680D491844019229F13D
:10153000ABFB23680021019A2033094829702360FE
:1015400033F1BAFB03B0BDE830402AF181B903B0F2
:1015500030BD00BF7C310030A4310030A0431908F9
:101560007E31003008B5262026F1DEFE144BD3F87C
:10157000902042F40032C3F89020D3F8902022F457
:101580000032C3F89020D3F89020D3F8E82042F43A
:101590000032C3F8E820D3F8102142F40032C3F837
:1015A00010216D22D3F81031064BDA604FF0FF3274
:1015B0001A620D221A600122034B1A7008BD00BF87
:1015C0000044025800440040B4310030014B186818
:1015D000704700BFFCFF1B08014B0248C01A704750
:1015E000A043190800001C0800487047A0431908D0
:1015F00007490022074B5B1A9A4201D3012070472A
:1016000051F8040B013001D10432F5E70020704796
:10161000A043190800001C085A4B2DE9F74F1F681A
:101620000224594B07F56A57DFF880911B78183769
:10163000DFF87C81554D1F44DFF878A128F174FB59
:10164000A9EB080B06460EB13A2C41D9A9EB0803C9
:10165000B3EB070C24D4DFF860E1661C4C4A0C2184
:10166000F6B2AEEB0200614360456FDD68180127FA
:101670006A50624407721F464260DB1B77D44549BB
:101680000234454FE4B2CA1B9A424FF00C0206FBEB
:1016900002F266DDA91801203B44AF5008724B608E
:1016A0003B2C66D80C2301225C432B191A724FF095
:1016B000FF322A515A60394B1B782BB1384B1B68CB
:1016C0002B60384B1B686B60304803B0BDE8F08F6F
:1016D000336AF06953450ABF334BF31AA3EB0A038D
:1016E00080B1019329F1C0FC019B58B122460C2125
:1016F00001344A430121E4B2A8180172F169A950EA
:101700000D3141600C2001211F4400FB04FC5F45AA
:1017100005EB0C0245F80C6006F13C0C1172C2F8A6
:1017200004C004EB010204F10204D2B2E4B200FBF3
:1017300002F205EB02000172316AA95019444160BE
:10174000AED2304628F100FB06467CE705EB010CE3
:101750004FF0010807446A508CF80880CCF804E088
:101760008BE7AB180120AF501872596098E73446E8
:1017700096E7012385F8CC324FF0FF33C5E9B1334A
:1017800099E700BFA43100307C31003004220030E2
:10179000882F003000000430A027023000220030E3
:1017A000A8310030A03100300022003000001C08B9
:1017B000A0431908000600309C2702300C4B1B7810
:1017C00010B50BB9FFF7CEFE00230A490A48CA69D3
:1017D0009206FCD54A6A1C5CD2B2944205D1013310
:1017E000DBB20E2BF3D1002010BD0023EFE700BFCA
:1017F000B431003000440040C898150838B5084B93
:1018000004461B780BB9FFF7ADFEE4B2054DAC62A0
:10181000EB695B0600D538BD2AF11AF8F8E700BF7E
:10182000B43100300044004010B5441E14F8010FDC
:1018300000B910BDFFF7E2FFF8E7000070B50268DD
:101840000446EFF30581D9205369C9B2CCF076F88C
:10185000294B1B78A3B1294B94E8030083E80300CC
:101860002748FFF7E1FF6368B3B12648FFF7DCFFC5
:101870002548FFF7D9FFFFF7A1FF2448FFF7D4FF62
:10188000234D2B783BB124681CB1204629F1ECFB99
:1018900020B900232B7070BD1E48E7E720461E4E7E
:1018A00029F1F6FB00F2145084421FD2204629F1A0
:1018B000EFFB30602046194E29F1FEFB04F5E053A2
:1018C000834217D9204629F1F7FB30600023144AE0
:1018D0001360144A1370FFF78BFE0028D9D029F14A
:1018E000B7FF0120BDE8704029F14ABAA4F21453B1
:1018F0003360DFE73360E9E77D310030AC31003041
:10190000D8981508DD981508EE981508DA98150886
:1019100000220030E8981508A8310030A0310030CE
:10192000A43100307C310030284B1A7870B542B1B8
:101930002748FFF779FF274B5868003818BF012068
:1019400070BD254A107800283CD0244E244C3368C2
:101950002448254D1A1D21782D1A0A44AA4205D380
:10196000224A4FF0FF31D161202222702278D2B179
:1019700003F120018D4205D81F2A9FBF1B4AD36166
:101980002022227020221949184429F17DF9326859
:10199000237800211548134420222170336033F14D
:1019A0008BF929F155FF33689D4207D90F49202251
:1019B0000F48CB6129F168F929F14AFF002029F18C
:1019C000DFF9B8E701221A70BAE700BF7D310030B5
:1019D00034991508AC31003000220030A4310030B9
:1019E0007C310030A043190800001C087E31003013
:1019F000E0FF1B082DE9F84307460E460024DFF8F8
:101A00003890DFF83880B44201D1BDE8F88324B1C2
:101A1000230702D14846FFF707FF3D5D01342B093C
:101A200005F00F0518F80300FFF7E8FE18F80500A9
:101A3000FFF7E4FEE7E700BFDA98150844991508B8
:101A4000474B1B782DE9F74F07460E4690465BB192
:101A5000022925D0042938D0012902D11146FFF7E7
:101A6000C9FF4048FFF7E0FE3F4B1B78002B4ED0EC
:101A70003E4A00253E4BA2EB030938E037F814300C
:101A8000ADF8043024B1620702D12846FFF7CCFE3E
:101A90000134022101A8FFF7ADFFA045EED1E0E738
:101AA0000024304DF9E757F82430019324B1A307FF
:101AB00002D12846FFF7B8FE042101340DEB0100E6
:101AC000FFF798FFA045EED1CBE70024254DF9E7BD
:101AD000FFF722FD022E1DD0042E2CD0012E06D1A0
:101AE0002378795D5A1C2270224AD1540135A845C9
:101AF0000DD0214B214C1B682278043313444B45F5
:101B0000E6D31C4B4FF0FF32DA612023237003B081
:101B1000BDE8F08F2378DFF85CA05A1C22703A7879
:101B20000AF80320FFF7F8FC23785A1C22700022E1
:101B30000AF80320DAE74FF0000ADFF838B022781D
:101B40003B78511C23FA0AF30AF1080A21700BF8BA
:101B50000230FFF7E1FCBAF1200FF0D1C6E700BF79
:101B60007D310030DA9815080022003000001C0892
:101B7000A04319087E310030A43100307C310030A0
:101B80007FB5039140210546C0F090F8039A18B93B
:101B90000124204604B070BD134E039296F97A3F9B
:101BA000002BF5D07EF0BAF8437A039A53B97EF051
:101BB000B5F8847A039A2CB90C4B40212846C0F022
:101BC0007DF8E6E70A4BB6F97C1FD3F81C38B3F969
:101BD00006309942DCDD074B402128460024009363
:101BE000054BC0F06BF8D4E7B86100305899150880
:101BF000B88100307799150865991508F0B50D463C
:101C000091B020210446C0F051F8002800F0AE80C9
:101C1000574E96F97A3FBBB106F50052B6F97C3FB4
:101C2000D2F81C28B2F90A1003F10A02914203DD2E
:101C300040F28D32934207DC4E4B2A46202120464B
:101C4000C0F03CF800208FE096F9693F022B05D1E7
:101C5000494B2A4620212046C0F030F8B6F83C3FD8
:101C600041F65832A3F57A739BB293420FD8434F93
:101C700006F6A872D7F8F43692ED007AD3ED097A19
:101C8000B4EEE77AF1EE10FA03DD3D4BD5E73D4BBC
:101C9000D3E706F6AC72D3ED0B7A92ED007AB4EE90
:101CA000E77AF1EE10FAF0DCB6F9763F002B01DCB2
:101CB000354BC2E7A7F5405393F8AC2A0D2A04D858
:101CC0004FF42153D340DA0713D4304811F0D6FF34
:101CD000012806D1D7F80007B7F01AFC58B101283F
:101CE00012D02B4B93F8211C11F0100122D0294B5C
:101CF000A3E7294BA1E7294B0093294B2A46202132
:101D00002046BFF0DBFF9DE7214B93F82C38DB0723
:101D10000ED51921234865F0F5FE48B1D6F8546F69
:101D20001921204865F020FF8642DADD1E4BE3E7EB
:101D30001E4BE1E72E2204A8039132F1BDFF3223AE
:101D400003AA1B49D7F8FC06B5F040FD18B903AB50
:101D50000093184BD2E7322303AA1749D7F8F406A9
:101D6000B2F02EFE0028F2D011B0F0BD0120FBE74A
:101D7000B86100308099150893991508B8A1003012
:101D8000CB991508BB991508E5991508C0BD003019
:101D9000B8810030749A1508FA9915083F9A150809
:101DA0001A9A1508184800305E9A15084F9A1508B7
:101DB000899A15088D9A15089F9A150870B58EB0E6
:101DC0000E4600212E22054602A8019132F174FF31
:101DD000322201A9094897F081F9044640B99DF9DA
:101DE000043043B9064B074A31462846C0F090F903
:101DF00020460EB070BD01ABF5E700BF5487003040
:101E0000A49A1508096B180807B50448B9F0FEF93B
:101E100000F0010003B05DF804FB00BF90A80030A3
:101E20002DE9F043DFF87891044699B00D46D9F8D2
:101E3000080C03681B69984780461AF0A5F9002131
:101E400007462E220CA80B9132F136FF32230BAA43
:101E50004146384619F020FC064648B90BAB434AC8
:101E600029462046C0F054F9304619B0BDE8F08349
:101E70003F4895F03BFAB8F1000F0BD0A9F5A04010
:101E800016F070F880B93B4A294620460026C0F07B
:101E90003FF9E9E710F0060FE6D0A9F5A04016F0EB
:101EA00061F808B9344AEFE703A9384619F06AF82F
:101EB00028B19DF80D305B0601D5304AE4E7DFF824
:101EC000E4800023D8ED007AF5EEC07AF1EE10FA46
:101ED00035DD0DF120090893099305AA0A9307AB94
:101EE00004A93846019306ABCDF8009019F0F4FD33
:101EF00048463DF0E1F9D8ED007AB4EEE70AF1EE9C
:101F000010FA01DB1E4ABFE79DED057AF4EEC77AB1
:101F1000F1EE10FA01D81B4AB6E79DED047AF4EE13
:101F2000C77AF1EE10FA01D8174AADE79DED067AAF
:101F3000F4EEC77AF1EE10FA01D8144AA4E707F5D7
:101F40001971134806F094FA074608B1114A9BE745
:101F500011490F4806F08CFA002885D00F4A29460F
:101F600020463E46C0F0D4F87EE700BFBC9A150874
:101F7000B46C0030C59A1508DC9A1508029B150848
:101F8000109B1508259B15083B9B1508519B1508B0
:101F9000B8310030659B150880A80030829B150879
:101FA000B88100305071003008B5064B93F8213CE1
:101FB0009B0704D5044AC0F0ABF8002008BD0120FF
:101FC000FCE700BFB8810030A49B150870B50E4631
:101FD0008EB020210546BFF069FE18B901242046C5
:101FE0000EB070BDC1F03CFC04460028F6D00021C4
:101FF0002E2202A8019132F15FFE2046322201A971
:10200000C1F0F0FB04460028E8D101AB024A31469A
:102010002846C0F07DF8E2E7096B180870B50C4C53
:1020200005460E46D4F8080C03685B69984710B162
:102030000124204670BDA4F5A04015F0A5FF04467C
:102040000028F5D1034A31462846C0F061F8F0E790
:10205000B8810030B49B15082DE9304E444D8246BE
:102060008EB08B46D5F82C3C93F8D90080BB7DF020
:1020700055FE20217FF00AF868BB012495F8FE3B4D
:1020800003F01403142B05D100243A4A5946504654
:10209000C0F03EF859465046C1F00CF900212E22FE
:1020A000884202A8019108BF0C4632F105FED5F81E
:1020B0002C0C01AA322103681B6898470546F8B921
:1020C0002C4601AB2C4A59465046C0F021F8204618
:1020D0000EB0BDE8308E7DF021FE1F217EF0D6FFD0
:1020E00030B1264A594650460024C0F011F8C5E7E1
:1020F0007DF014FEA5217EF0C9FF0028F1D1BCE7D8
:10210000002CE4D0DAF808303BB9DAF80030594650
:1021100050465B6B98470446D9E759465046FFF74F
:102120006DFD814659465046FFF748FE09EA00001A
:102130005946C4B25046FFF737FF5946044050464F
:10214000FFF744FF594604405046FFF719FD594632
:1021500004405046FFF762FF594604405046C0F025
:1021600017F9594604405046C1F0BCF80440AEE7A8
:10217000B8810030E29B1508FA9B1508C89B15082A
:1021800008B5FFF769FF054A92F8FC1B60F30411DC
:1021900082F8FC1B024A907108BD00BFB881003074
:1021A000ADC40030F7B505460F46BFF0BBFD044691
:1021B00078B102212846BFF079FD064648B115489E
:1021C000B9F024F8C205C0F30723C0F3002403D5F7
:1021D0003446204603B0F0BD9B07F9D50D48B9F051
:1021E00023F80D4B03F29C63D3ED007AF8EEE77A07
:1021F00030EE670ADFED097AB0EEC00AB4EEE70A06
:10220000F1EE10FAE4DD064B3A4602212846BFF013
:1022100055FDDEE790A80030B8A100300000C842AC
:10222000089C1508F8B504460F46C0F05FF9102168
:1022300005462046BFF03AFD58B12046FFF7E4FDC1
:10224000064630B93546044B3A4610212046BFF0C9
:1022500035FD2846F8BD00BF1C9C150870B5054625
:102260000E46BFF0BDFC044678B180212846BFF081
:102270001DFD50B1074B93F8813143B10024064B4B
:10228000324680212846BFF019FD204670BD044625
:10229000FBE700BFB8910030309C150838B50D4DF4
:1022A0000446D5F80007B7F033F9012810D0D5F867
:1022B0000007B7F02DF9022804D02046BDE83840C9
:1022C000BFF090BC044811F0D9FC0128F5D138BD0D
:1022D0000020FCE7B8A10030C0BD0030F0B5114CC3
:1022E00085B006460F46D4F814386A460093D4F8F1
:1022F00018380193D4F81C380293D4F8203803938B
:10230000C0F066FF054639463046BFF015FE94F82A
:10231000FC3B284060F3C303C3F3C00084F8FC3BDC
:1023200005B0F0BDB88100302DE9F843DFF8AC907E
:10233000064626480F4694F0D9FF0446D9F8080C03
:10234000DFF89C8003681B699847054630B914F094
:10235000060F03D1D9F83C3C022B09D1394630464F
:10236000BFF006FD054618B9002488F807400AE0CA
:1023700039463046FFF754FD04460028F4D02DB905
:10238000012388F807302046BDE8F883082130464D
:10239000BFF08CFC0028F3D00D4827F06DFC00281E
:1023A000EED00C4BB02193F8882501FB023203F5E7
:1023B0004053B2F89623B3F96A3F9A42E0DD064BE8
:1023C0003A4608213046BFF079FCCDE7B46C0030C6
:1023D00068340030B8310030449C1508B8810030B2
:1023E000ADC4003070B588B005460E46BFF0B8FEEB
:1023F000044688B320212846BFF058FC60B31B4B2D
:1024000093F8302842B393F810389B0724D507AAD5
:1024100006A9174890F0A2FCF0B19DED077ADFED18
:10242000157AB4EEE77AF1EE10FA15D8B7EEC77A5E
:102430000024202128468DED027BDDED067AFDEE9D
:10244000E77A08A3D3E90023CDED007ACDE9042390
:10245000094B3246BFF032FC204608B070BD00BFC9
:10246000AFF30080000000403333E33FB8A10030F9
:10247000747200309A99193F549C15082DE9F34164
:102480000F46044619F080FE804618F02DFD0546E3
:1024900040B95E4A01212046BFF03AFE284602B00C
:1024A000BDE8F0815A4E3946D6F8080C03689B699E
:1024B0009847054658B9D6F8080C03689B6B9847AF
:1024C000544A034601212046BFF022FEE6E7A368F6
:1024D000002BE3D010212046BFF0E8FB20B3D8ED5D
:1024E000917A98ED900A20EE270A2FF19FFCDFEDFC
:1024F0004A7AA6F5005320EE270ADFED487AB3F9B1
:102500003C3F20EE270A07EE903AF8EEE77AB4EE69
:10251000E70AF1EE10FA07DD414B012210212046B7
:10252000BFF0CCFB0025B9E720212046BFF0BEFB61
:1025300038B196F8213CDB0603D53A4B0122202125
:10254000EDE740212046BFF0B1FB002833D0012F3A
:102550001CD0232F1AD0042F18D0D6F81C3832489C
:10256000B3F9083000EE103AB8EEC00A00F0CEFB26
:10257000B5EEC00AF1EE10FA2BDD2C4B0122402102
:10258000204600932A4BBFF099FBCBE7D6F8080C06
:1025900003681B68984704280DD0D6F8080C036818
:1025A0001B689847142806D0D6F8080C03681B68E7
:1025B00098470328D1D11F4B1B68D86A03681B6A50
:1025C00098470128014619D11B4A2046BFF0A0FDBB
:1025D000A8E7D6F8080C03685B69984730B1D6F8CD
:1025E0001C38B3F90830002BE5DDC6E7D6F8080C37
:1025F00003681B6898470B28DDD1F0E73946204671
:1026000002B0BDE8F041C0F055BA00BF809C15088B
:10261000B8810030919C1508E02E65420000C84248
:10262000A59C1508749A1508B831003077991508DB
:10263000AD9C150830C20030B99C150870B5054630
:102640000E46FFF7EDFB084B04463146D87128468D
:10265000FFF7E4FC00283146284608BF0024C0F0FC
:102660008BFD204070BD00BFADC400302DE9F041AE
:10267000524F3B78002B40F09F80514C0126D4F8FC
:102680002C5C3E7095F8D9501DB13B702846BDE8D2
:10269000F081C0F0F3FE054630B94A4A387013782D
:1026A00043F001031370F1E770F024FA31466FF044
:1026B000E7F9A4F5A04007F0C7FE434B1E710B26B7
:1026C000013E5EF0D7FA5EF0F3F916F0FF06F7D19F
:1026D0003E4801F0EBF919F057FDD0F8F821C4F8A5
:1026E000542C90F87432DA0754D419F06BF870F067
:1026F00001FA3C216FF08EFF04F6144300221A60A9
:102700000021324801F062FA304815F02BFC0146F6
:102710002F48BDF0A7FE2F4B2F4E01211B68D86A12
:1027200003681B68984796F86C38D4F82C0C6FF344
:10273000410386F86C3803685B6A98470121D4F836
:102740002C0CBAF0DDF870F0D5F98046D4F8080CFE
:1027500003681B689847A6F580430146404693F8F6
:10276000D02C6FF069FBA6F5E04007F05FFE6BF040
:1027700001FC6AF055FF00233B70CBF04BF9B4F835
:10278000FE3BC6F80C0723F4087343F02003A4F8BB
:10279000FE3B7BE79B07B3D431460C4805F0E6FED1
:1027A0000E48B8F041FDDFED0E7A04F6144320EE3A
:1027B000270A83ED000AA3E7002567E7B53100305B
:1027C000B8810030CCC40030ADC40030B831003026
:1027D000DC85003030C20030B8A1003090A8003055
:1027E0000AD7233C2DE9F043384D87B0D5F82C3C6F
:1027F00093F8D930002B66D062B1012901D023298A
:1028000008D195F9FC3B002B04DB0024204607B0DF
:10281000BDE8F083C0F0F8FE04460028F5D019F0BA
:10282000B3FC074625F09EFE8046384618F068F94E
:10283000D8B198F92430022B17D100264FF00009A7
:10284000F1B203AA3846CDF80C900191CDF8109062
:10285000CDF8149018F0AAFD019918B103AA4046CA
:1028600025F00CFB0136032EEAD1194BD5F8080CE4
:10287000984224D10CF042FB0121164807F0E6FFF4
:102880000121144807F020FF0021D5F82C0CBAF0E4
:1028900037F811483FF024F870F02CF900216FF060
:1028A000EFF80E4B00211B68D86A03681B68984735
:1028B00095F8FE3B6FF3451385F8FE3BA6E71846F7
:1028C0000CF020FBD8E70124A0E700BFB88100305E
:1028D0005CB90030B83100305CB6003030C2003036
:1028E0000020704710B5064CD4F8080C03685B6AEA
:1028F000984718B1D4F82C3C93F8D90010BD00BF0C
:10290000B881003030B52DED028B89B0B0EE408A31
:102910000C46FFF7E7FF0546002836D0B4EE488A9C
:102920002268636802A89FED1B0AF1EE10FA02927A
:1029300003937DBFDFED188ADFED167A68EE288AF3
:10294000DFED168A78BF68EEA78AD4ED027AF1EE41
:10295000677ACDED047A3CF091F8B4EE488A002213
:1029600001238DED050ACDED060A05A9F1EE10FA59
:102970009FED0A0AF0EE680A09488DED071ACDE9C5
:10298000002368BF13460EF0ADFE284609B0BDEC2B
:10299000028B30BD0000C842E02E654200000000FE
:1029A00060BC0030014894F069BD00BFB46C0030D9
:1029B00000F5A04008B590F8FC3BC3F340128A42F2
:1029C0000BD061F3451380F8FC3B31B170F092F805
:1029D0000F21BDE808406FF01DBE08BD70B500F5C1
:1029E000A04605460C46D6F83C3C8B4212D0012945
:1029F00011D0022916D059B970F07CF81B216FF064
:102A000009FE0D4A05F5B3400621683073F064FCF9
:102A1000C6F83C4C70BD70F06DF81A216FF0FAFDED
:102A2000064AEFE7012101F0D1F870F063F81D21AB
:102A30006FF0F0FD024AE5E7249D1508399D150861
:102A4000349D150800F5A04210B592F8213C0C46C3
:102A500003F00101A14209D064F3000382F8213C94
:102A6000DB0704D407F0C0F8024B9C7210BD07F0DE
:102A7000A7FAF9E7ADC4003000F5A04090F8213C7A
:102A800061F3410380F8213C014B1973704700BF8B
:102A9000ADC4003010B504467DF040F920217EF031
:102AA000F5FA04F5A043003893F8FE2B18BF012077
:102AB00060F3820283F8FE2B10BD000010B50446BF
:102AC0006BF058FA436F04F5A04204F5E040D2F8E9
:102AD0002C2CD360D0F8F4265364D0F8FC26C2F82E
:102AE0001433D0F8F4060368BDE810401B6D184796
:102AF000F8B500F5A04504462DED028BD5F82C3C29
:102B000093F8D930002B7FD095F9FC3B002B7BDB71
:102B100000F5004393F8D033002B75D1D5F8080C9D
:102B200003685B69984700286ED1394BD3F8080CCD
:102B300003681B6898470B2866D004F5E0479FEDB3
:102B4000357AD7F8FC36D3EDDC7AF0EEE77AF4EE9E
:102B5000C77AF1EE10FA57D5D5F82C0C443072F044
:102B60003BFD0346B7EE001A9E20DFED2B0A93EDE6
:102B7000000A36F0EBFAB5EEC00AF1EE10FA43DDCA
:102B800004F5ED405830B8F05BFBB0EEC00ADFED65
:102B9000237AB4EEE70AF1EE10FA35D504F50056C3
:102BA000D7F8F406D6F8E83407EE903A0368B8EEA2
:102BB000E78AD3F88C309847DFED197A38EE400A6F
:102BC000B0EEC00AB4EEE70AF1EE10FA1CD5D6F862
:102BD000EC3440F2E63203F2F313934214D8D5F802
:102BE0002C0C9FED100ABBF07BFAD5F82C3C04F5B9
:102BF000D9509FED0C0AD3ED0C0A1830BDEC028BB6
:102C0000BDE8F840A2F06ABFBDEC028BF8BD00BF82
:102C1000B881003000000034000000000000704265
:102C20000000FA430AD7233C00F5A04008B5D0F8CD
:102C30002C0C0368DB689847F6EE007A20EE270A32
:102C4000B5EEC00AF1EE10FA48BF9FED010A08BDCB
:102C50000000000038B500F5E0450446B7EE001A64
:102C60006F2004F5A044DFED110A2DED028BD5F89D
:102C7000F43693ED2E0A36F069FAD4F82C0CB0EE47
:102C8000408AD5F8FC56036805F50775DB68984758
:102C900038EE400ADFED067A2846BDEC028B20EEC6
:102CA000270ABDE838409EF08DBC00BF0000000040
:102CB00000007A4400F51553D2ED007A91ED006AD8
:102CC000D3ED005AD3ED036A26EEE77A67EEA57AD4
:102CD000A6EE257AE6EE267A81ED007AC2ED007A3C
:102CE0007047000000F5A043B3F9F43443B900F590
:102CF0004050B0F9760F0028B8BF404280B270470C
:102D000083EAE370A0EBE370F8E7000000F5A0436E
:102D100070B52DED028B93F8211C82B0044611F0A2
:102D2000010605D09FED2E0A02B0BDEC028B70BDEE
:102D30008DED010A7CF0F2FF037F002BF2D0DFED76
:102D4000298A04F54055DFED260A4C20B0EE681ABA
:102D50009DED010A36F0FAF94FF4C8723146B5F923
:102D60007E0FB0EE408A36F059FAA5F87E0F204665
:102D700014F018FDB5F97E3F07EE900AB8EEE77A39
:102D800007EE903AF8EEE77A77EE676AB4EEE68AF5
:102D9000F1EE10FA0DD5204638EE668AFFF7A2FF55
:102DA00007EE900AB8EEE70A20EE088A88EE260AB7
:102DB000BAE777EE877AB4EEE78AF1EE10FAB1DD82
:102DC000B5F9763F38EE678A78EEE77A00EE103A8A
:102DD000B8EEC00A20EE088A88EE270AA4E700BFF2
:102DE0000000000000007A447047000070470000B7
:102DF0000020704700207047002070470020704777
:102E00000020704700207047002070470020704766
:102E100000207047002070477047000000F57E508A
:102E20000C30704700487047A8D3150800F5A04043
:102E3000D0F8080C03681B681847000003480860B6
:102E40003921117008221A60704700BF90A315083D
:102E500000F5E0409FED0A7AD0F808370120D3ED65
:102E60000E7AF4EEC77A9FED077AF1EE10FAB8BF4A
:102E7000D3ED047A67EE877AC1ED007A704700BF20
:102E8000000000340AD7233C00F5A040DFED047AAF
:102E9000D0F8080C20EE270A0368DB6D184700BF46
:102EA0000000C84200F5004393F86D37002B14BFB3
:102EB0001B2003200B1A58425841704700F5A040D0
:102EC00090F8210CC0F380007047000000F5A0408E
:102ED000D0F8080C03685B6C1847000000F5A040B0
:102EE000D0F8080C03681B6C1847000000F5A043DD
:102EF00000F50440D3F8083C68301B1A584258418A
:102F00007047000000F5A04010B5D0F8080C0C4642
:102F100003685B6D984707EE900A9FED057A0120E4
:102F2000F8EE677A67EE877AC4ED007A10BD00BFCD
:102F30000AD7233C00F5A04010B5D0F8080C0C4689
:102F400003681B6D984707EE900A9FED057A0120F4
:102F5000F8EEE77A67EE877AC4ED007A10BD00BF1D
:102F60000AD7233C00F5A04010B5D0F8080C0C4659
:102F700003689B6D9847DFED047A012020EE270A55
:102F800084ED000A10BD00BF0AD7233C86F058BD6F
:102F9000C0F044BC15F05CBF04F0FCBE8CF0C2BBBA
:102FA0007FF0EABB6AF032BF33F07AB96EF0EABE66
:102FB0001DF064BA7FF0EEBF7CF0F0BA79F044BF48
:102FC00014F060B814F00CBE07F0F8BD15F0D6BED2
:102FD00006F060BE06F0C0BB06F0E6BA14F0DEB93B
:102FE0001BF068BD88F012BC94F04EB811F0C0BC64
:102FF000FFF77EBD14F082B9BDF052BE8FF0CCBE9B
:1030000014F028BC03F036BF14F002B914F080B8F5
:103010007CF0B8BD5FF0D4BE28F078BE03F000BAF3
:103020007FF0C8BF14F028BD07F07EBD05F0C0BA20
:1030300007F0EEBE06F04ABB07F0FEBA13F0B2BFCF
:10304000FFF73CBD33F0AEBE00F5E04008B5D0F868
:103050000807B5F0A7FE012008BD000010B400F578
:10306000044400F5A0406834D0F8080CA04203D115
:103070005DF8044B09F0E2BC00205DF8044B70479A
:1030800000F5044300F5A0406833D0F8080C9842DE
:1030900001D109F0F1BC704707F010B80BF09CBAF1
:1030A0000BF05ABC0BF0EEBB00F5A04310B5044684
:1030B0002DED028BD3F8080CB0EE408A03685B6AF2
:1030C000984720B900242046BDEC028B10BD04F5C2
:1030D0000A409FED070AA83028EE000A0DF018FEFE
:1030E00004460028EED001210248FFF761FCEAE720
:1030F0000000C842B83100301FB500F5A0430446B7
:103100000391D3F8080C03685B6A984760B1002309
:10311000DFED060A04F50A400399B0EE600A1A468C
:10312000A83000930EF0D4FB04B010BD00000000E6
:1031300030B50C4600F5A04105462DED028BD1F8C7
:10314000080C89B0B0EE408A0168F0EE608A039204
:10315000496A0293884728B39FED140A05F50A408F
:103160009DF83C1094ED006A68EE800AD4ED016A87
:10317000A83094ED027A26EE006A66EE806A01912C
:1031800027EE407A9DF8381028EE000A029B009145
:1031900005A9039A8DED056ACDED066A8DED077AD6
:1031A0000EF0B4FA09B0BDEC028B30BD0000C8428D
:1031B00000F5A04370B50646D3F8080C8EB00D4656
:1031C000036814465B6A9847D8B3DFED1F7A002383
:1031D00095ED006A06F50A40D5ED016A08AA95ED5D
:1031E000027A26EE276A66EEA76ADFED180A27EE56
:1031F000677A00938DED056AB0EE600A94ED006A7F
:1032000005A9CDED066AA830D4ED016A26EE276A3D
:103210008DED077A94ED027A66EEA76A8DED086A65
:1032200067EE677ACDED0B0ACDED096ACDED0C0A9C
:10323000CDED0A7ACDED0D0ACDE901330BAB0EF0E1
:1032400047FC0EB070BD00BF0000C8420000000087
:10325000F0B51C4600F5A04307460E4615462DED79
:10326000028BD3F8080C8FB0B0EE408A0368F0EE02
:10327000608A5B6A984700284CD09FED280A07F5C2
:103280000A4096ED006A08AAD6ED016A68EE800A47
:1032900096ED027A26EE006A66EE806A9DF860304E
:1032A00027EE407A05A98DED056AA83095ED006AF4
:1032B000CDED066A8DED077A26EE006AD5ED016A3E
:1032C00095ED027A66EE806A8DED086A27EE407A07
:1032D00094ED006A0293CDED096A26EE006A9DF82E
:1032E0005C30D4ED016A8DED0A7A94ED027A66EED7
:1032F000806A019327EE407A9DF8583028EE000A44
:103300008DED0B6A00930BABCDED0C6A8DED0D7A54
:103310000EF0DEFB0FB0BDEC028BF0BD0000C8422A
:1033200000F5A04370B50646D3F8080C86B00C46ED
:1033300003685B6A9847054610B39FED136A002344
:10334000D4ED006A012294ED017A06F50A40D4ED2D
:10335000027A66EE866A27EE067ADFED0C0A67EEE1
:10336000C67A03A9B0EE600AA830CDED036A8DEDF0
:10337000047ACDED057ACDE900321A460EF0B2F9A5
:10338000284606B070BD00BF0000C8420000000023
:10339000F0B5144600F5A04207460D462DED028B10
:1033A000D2F8080C8DB0B0EE408A0268F0EE608A68
:1033B0000593526A90470646C8B39FED1F0A012243
:1033C00095ED006A07F50A40D5ED016A68EE800ABE
:1033D00095ED027A26EE006A66EE806A029227EE8A
:1033E000407A9DF854208DED066A06A994ED006A96
:1033F000A830CDED076A8DED087A26EE006AD4ED8F
:10340000016A94ED027A66EE806A019227EE407AB4
:103410009DF8502028EE000A059B009209AA8DED28
:10342000096ACDED0A6A8DED0B7A0EF0F1F830469F
:103430000DB0BDEC028BF0BD0000C84200F5A0430A
:1034400070B506462DED048BD3F8080C88B0F0EE6D
:10345000408A0368B0EE609AF0EE419A5B6AB0EE83
:10346000618A9847054600B39FED120A00244FF089
:103470007E5304A829EE801A079469EE000A04938B
:1034800028EE800A069405943AF048F99FED0A0A5E
:1034900006F50A40002301AA28EE000A04A9A83074
:1034A0000194029403940DF059FF284608B0BDEC36
:1034B000048B70BD35FA8E3C0000C8420A4A0B46A8
:1034C00092F9FC2B002A05DA00228A604A600A6021
:1034D0000120704700F5E040D0F8F426543207CAC6
:1034E00083E80700F4E700BFB8810030724B70B585
:1034F000044640F8043B86F0C3FB002504F11000AD
:1035000004F57B561CF02AFC04F168001FF072FAE7
:1035100004F500706AF018FA04F52C7026F0FAFA37
:1035200004F5C6601AF034FE04F2D47024F006F9F3
:1035300004F6183032F01EFC04F5AC502036103082
:1035400086F04CF904F5B35064F002FA04F5C85063
:1035500010306EF0CBF904F5D150043093F09CF8A4
:1035600004F5D2507FF08AFB04F5D3501C301EF0D6
:10357000E5FB04F5D9501830A3F02AF904F50750FB
:103580000830ADF0F5FF04F5075024306AF088FDEF
:1035900004F50950143087F053FD04F5005304F589
:1035A0000A50464A83F8985204F50A5328301833D3
:1035B00013605DF063F804F50B502946383016F0BF
:1035C0006BFF04F5275030309FF0BAFE04F527500A
:1035D0003C308CF0B7F804F528502830A0F08CFB74
:1035E00004F54A503430A7F057FF04F54F500C3023
:1035F000A6F06AFD04F54F503430AAF009F804F53E
:1036000051503430ADF06EF904F553501830ADF030
:1036100099FD04F5545020309EF00EFA04F55750F1
:10362000083015F0F1FD04F55C503030A1F086F85B
:1036300004F55E500830AFF04FF904F56B502049A7
:103640001C3062F0AFFD04F56B50343034F0FAFFFB
:1036500004F56B503C3093F0B1FD04F56E503830FA
:10366000AEF0F4FF04F570501030CAF0EBF904F539
:10367000405383F8D05C04F5735520352846103547
:1036800071F0FAFEAE42F9D104F57B500D4D2C30AD
:10369000AFF076F804F57C50103071F0ABFA2B687F
:1036A00013B10948CAF088F92046084962F07AFD4A
:1036B00020462C6070BD00BF54D316081CD00030CB
:1036C000ACB01708D4C50030489D1508CCD11608F9
:1036D00010B513F0E7FF7CF021FB0368BDE8104054
:1036E0005B681847FFF7F4BF10B5044607F004F80D
:1036F000204614F061FC204604F02CFD2046BDE875
:10370000104004F093BE0000FFF7EEBF70B500F567
:10371000B8450446583528461CF00AFA24F022FF22
:1037200090F9213093B390F840337BB304F5A04374
:1037300004F2D476D3F82C0C443071F04DFF0346DC
:10374000B7EE001A9E20DFED120A93ED000A35F065
:10375000FDFC94F9083828460021012B04F62C249E
:1037600008BF86ED0E0A1BF081FFDFED0A7A94EDAB
:10377000287A304620EE270ADFED077AA7EE270ADF
:1037800084ED280ABDE8704024F0E2BD70BD00BFA2
:1037900000000000CDCCCC3D6666663FFFF7B6BFAB
:1037A00010B50121044614F043FC60B1114BD3F86D
:1037B000080C03689B6A984728B9204602F00EFD62
:1037C000204602F043FD4FF40011204614F030FC77
:1037D00018B134F04FFC32F0DFF94FF4802120466D
:1037E00014F026FC28B134F045FCBDE8104032F05E
:1037F000D7B810BDB8810030FFF7D2BF38B502216D
:10380000044614F015FC70B10121204614F010FCA0
:1038100048B9594BD3F8080C03689B6A984710B90C
:10382000204602F0DBFC0121204614F001FC48B9DF
:10383000514BD3F8080C03689B6A984710B920468F
:1038400002F004FD0121204614F0F2FB10B92046DD
:1038500002F056FD4FF40031204614F0E9FB30B180
:1038600004F5A043D3F82C0C03681B6C9847402147
:10387000204614F0DDFB68B104F5C8551035284624
:103880006DF040FA04F5805393F9403A13B128469D
:103890006DF0FCFB4FF48061204614F0C9FB20B1B1
:1038A00004F5C85010306DF0C7FA2021204614F0FE
:1038B000BFFB68B104F5A045D5F8080C03681B6987
:1038C0009847D8B304F5E043D3F8FC06B2F0B0FF54
:1038D0008021204614F0ACFB00283CD034F0CAFB19
:1038E00032F082F81021204614F0A2FB70B104F5EA
:1038F000E043D3F8F406AFF0A3FE04F581403C307A
:103900008FF072FB04F58040BDF03CFA4FF6FF717A
:10391000204614F08DFB20B104F5A9405830BFF0CB
:103920008BFF4FF40041204614F082FB10B304F5E6
:10393000EF40BDE8384014307FF0BABC20460EF0AE
:10394000F1FE0028BED1D5F8080C03685B699847E2
:103950000028B7D0BCE74FF48021204614F068FB64
:103960000028BBD14FF40021204614F061FB002851
:10397000B4D1B7E738BD00BFB8810030FFF73EBF14
:1039800010B50121044614F053FB10B1204602F09B
:10399000B7FC8021204614F04BFB48B14FF4802146
:1039A000204614F045FB18B934F064FB31F0F8FF01
:1039B0004FF40011204614F03BFB30B104F5D95010
:1039C000BDE810401830A2F021B910BDFFF7D8BFF4
:1039D00010B5044606F042FC204606F08FFA204659
:1039E00006F082FC204606F09BFD204615F054FAB6
:1039F0002046BDE8104004F0A9B90000FFF7E8BF79
:103A000070B504464FF6FF7114F012FB04F5A045A3
:103A100028B1D5F8FC2B0721204602F0A3FCD5F8ED
:103A20002C3C93F8D9309BB92046FFF733F8D5F8F2
:103A30002C0C04F5804304F54052016892F8922F53
:103A4000CE6993F8AC1AB047D5F82C0CBAF016FB37
:103A50007DF03EFE204615F011FA95F8FC3B04F58A
:103A6000004204F5E044DB43C3F3C01382F8ED32B7
:103A70000C4AD4F8F45653712B685E6E6AF07AFAE9
:103A800069F0F4FE2846B047D4F8FC466AF072FAB2
:103A900004F5077469F0EAFE2046BDE870409DF029
:103AA00065BB00BFADC40030FFF7AABF2DE9F041F0
:103AB00000F5155300F5A04500F5005604461B68B7
:103AC00005F5446805F64447C8F8003006F24C5343
:103AD0001B683B60D6F8F00400F58C40503035F0A0
:103AE00003FB05F64C43C5F8480C05F54565D8F8C9
:103AF00000204FF6FF7120461A603B682B6014F0DF
:103B000097FA38B1D6F8F02420460921BDE8F041F3
:103B100002F0FEBBBDE8F08100F5A04310B5D3F87C
:103B20003C4C002C51D093F8FD2BD1074DD56FF3B1
:103B30000002012CD3F8141883F8FD2BD3F81828B1
:103B4000B1F90840B2F9082007EE104A06EE902AB3
:103B50000CBF03F5446203F64C42B8EEC77A07BFC8
:103B6000D2ED007A03F64442D2ED007A03F54562C5
:103B70000CBFF8EEE66AF8EEE66AD2ED005A00F500
:103B8000155225EEE66AA7EE276A67EEA67AD2ED11
:103B9000006AE7EE257A92ED037A27EE877AA6EEA1
:103BA000267ABDEEC77A17EE104A0C8192ED007AA4
:103BB000D3F8183867EE877A92ED037AE6EE477A03
:103BC000FDEEE77A17EE902A1A8110BD38B505464A
:103BD00000F5A0442DED028B71B1284613F0B2FB25
:103BE000D4F8483C40F2E6321B1A03F2F313934236
:103BF0000CD8BDEC028B38BDD4F83C3C022BF8D17C
:103C000013F080FBB0F57A7FE7D2F2E7C4F8480CF6
:103C100000F58C406423503090FBF3F300EE103A33
:103C20009FED0C7BB8EEC00B20EE070BB7EEC08B00
:103C3000B0EE480A2DF1CAF804F64C4304F5456489
:103C400083ED000AB0EE480A2DF15CFF84ED000A16
:103C5000CFE700BF000000A046DF913F00F50B500A
:103C60000121383018F01ABAFFF7F8BF10B5044632
:103C700013F09EFD1021204614F0DAF998B1204689
:103C800002F0F8F94FF40011204614F0D1F950B9C0
:103C900034F0F0F931F080FF04F5D950BDE8104060
:103CA0001830A1F0B3BF10BDFFF7E0BF70B50446F8
:103CB00006F0C0FF204B4FF6FF76254604F17C004E
:103CC00045F83C3B1D4B6465C4E916341C4BC4E904
:103CD00018341C4BA36620F0B7FA04F1980020F0CA
:103CE000B3FA04F1B40020F0AFFA174B04F1D0009E
:103CF000A4F8CC60C4F8C83020F0A6FA134B1449DD
:103D000028461D6062F04EFA04F52470A4F8746031
:103D1000A4F8906020F098FA04F52B7020F094FA43
:103D200004F5327020F090FA0023204684F8DC324B
:103D3000C4F8003370BD00BF140216089D3002089D
:103D4000A1300208A53002080000FFFF78C400304F
:103D50008C8B160810B5044606F06CFF0A4B04F174
:103D6000400023600123A38720F06EFA04F1500085
:103D700020F06AFA04F1600020F066FA04F17000A5
:103D800020F062FA204610BD000D16082DE9F04320
:103D900004462DED028B85B004F5A045FFF7A6FB88
:103DA000A34B04F57E5004F5B146236002AF3830D2
:103DB000743602F0A5FC04F57E5304F5B04004F51A
:103DC000B448C5F824380623383008F1700885F85F
:103DD000283871F051FB04F5B040603071F04CFBB5
:103DE00004F5B1400C307EF0DFFA3046BDF004FF40
:103DF000904B3946301DC5F8F438012304F5B4461C
:103E00008DF8083063F08CF904F5B2400C3654306C
:103E10005EF07AFF04F5B3401430AEF071FD864BCE
:103E200004F5B340B1EE040AC5F894392C3071F0B2
:103E30002BFB04F5B340B1EE040A3C3071F024FBD7
:103E400004F5B340B1EE040A4C3071F01DFB7B4B1E
:103E5000C5F8E8393046143676F0E6FC4645F9D127
:103E60001E2340F2CC60C5F8943B0023A5F8983B94
:103E700020F05EFEC5F8900B04F5B7401C30C8F08A
:103E80000FFE04F5B7406030C8F00AFE6C4A1368B4
:103E90001BB904F5B3436833136004F50C48694B50
:103EA00004F5B840B7EE008A08F19408C5F8E8397F
:103EB0000D300026C5F8088C04F5F149BBF05CF81C
:103EC00005F5446304F5B84005F64C4583ED008ADA
:103ED0004FF400715C4B583085ED008A04F5E045E5
:103EE000039309F11809594B0294009397E80C00C9
:103EF0001BF054F904F5C3400430C0F0EBFE04F5A8
:103F0000ED40B0EE480A203071F0CCFB04F5ED40F6
:103F1000B0EE480A383071F0B7FA04F5ED40483099
:103F200020F092F905F5DB6304F5EE404FF4004113
:103F30001E605E6014309E6005F2E4631E605E6089
:103F40009E6004F50B533833C5F8F036002385F82E
:103F500011371CF031F804F5EF4014307FF004F80D
:103F600004F5F040103095F07FFB04F5F040483048
:103F700063F0FCF9364B04F5F040C5F848385C3086
:103F800093F024F804F5F040324B78303249186051
:103F900062F008F9FF233149484685F8A83885F8CA
:103FA000B03862F0FFF82E4B1F6817B12D48C9F0EA
:103FB00003FD04F5F140C3F8009004F502453830E4
:103FC0006BF090F904F5014040355430B3F018FF20
:103FD00004F502403830B3F0D1FD28469CF076FA63
:103FE00004F50340294604F500456030BAF0DEFFD1
:103FF0001D4B04F50342DFF888C0C5F86033062383
:10400000C03285F8B433194BC3F800C03B461427BF
:1040100098B2013307FB00C1097C0029F8D1144B89
:104020001880144B1880144B1F686FB31348BEE7F9
:1040300014A81508D09C1508109D150804F716083B
:10404000F0C90030E8A815089930020804A815083E
:10405000209D150824D00030C0171708ECAE1708B3
:10406000DCD000305C9D1508B8F915087CC500301F
:1040700078C500304CC5003024C500307D9D150842
:10408000A4EF1508CDCC4C3D04F503401FED030A09
:104090001A6004F50749D43071F0F6F904F50340CD
:1040A00009F1A409EC3006F0C5FD644B04F50440A9
:1040B000C5F8EC332C3006F0BDFD614B04F504402F
:1040C000C5F82C346830FFF7F1FD484606F0B2FD24
:1040D0005C4B09F13C00C5F8A437C5F0EDFC5A4B28
:1040E00004F50940C5F8E0374C3006F0A3FD574B06
:1040F00004F50940C5F84C39903006F09BFD544B4F
:1041000004F5094085F8CC79C5F89039D03006F02F
:1041100091FD504B04F50A40C5F8D0390C3006F03B
:1041200089FD4D4B04F50A40C5F80C3A05F64823C5
:1041300060301E605E609E6006F07CFD474B04F5BB
:104140000A40C5F89C7AC5F8603AA83006F072FDBE
:10415000434B04F50A40C5F8E47AC5F8A83AEC30B8
:1041600006F068FD3F4B04F50B40C5F8EC3A3430DF
:1041700006F060FD3C4B04F50B40C5F8343B743051
:1041800006F058FD394B04F50C40C5F8743B05F6B4
:10419000EC3308301E605E60FFF7DCFD404606F041
:1041A00049FD334B04F50C40C5F8943CD03010F079
:1041B0001FFD04F50D40743006F03CFD2D4B04F559
:1041C0000D40C5F8B07DC5F8743DB83006F032FD3D
:1041D000294B04F50E40A5F8F47DC5F8B83D08302C
:1041E00006F028FD254B04F50E40C5F8447EC5F8C1
:1041F000083E4C30FFF7AEFD214B04F50E40C5F8EC
:104200004C3E0123DC3085F8D53E0BF045FE04F52D
:104210000F40B03011F08EFE04F51040283006F04B
:1042200009FD04F51043174A20469E669A62DE6631
:1042300005B0BDEC028BBDE8F08300BF70FE150831
:1042400010FF1508B4021608400316088404160867
:1042500020051608BC051608500616089008160812
:104260002C0916085C0A1608F00A16088C0B1608AA
:10427000380E1608E8031608F4111608D0091608B7
:10428000980D1608B412160838B5054B0A460146B3
:104290001C68236820461D68024BA847002038BDD3
:1042A00030C20030B831003038B5037904463BB92C
:1042B00005682DB1284630F007FD284620F034FC73
:1042C000204638BD394B70B50360044600F569508F
:1042D0003C301FF0A7FE04F5405393F8CC2442B9BC
:1042E000D3F8C8542DB1284630F0EEFC284620F013
:1042F0001BFC04F5075004F5B05504F5AD56083025
:104300001435ADF049F904F5EA5014360C30FFF7D6
:10431000CBFF04F5EA500430FFF7C6FF04F5E9507F
:104320001C30FFF7C1FF04F5D2507EF0BFFCB54250
:1043300004D0183D284630F075F9F8E704F58055AB
:104340001B4B04F6C8761035C4F8183BB54204D0B0
:10435000083D2846FFF7A8FFF8E704F6B44070F0E0
:1043600013FE04F5496070F00FFE04F66C4070F027
:104370000BFE04F6C83070F007FE04F6A43070F0AF
:1043800003FE04F5386070F0FFFD0A4BC4F8883076
:1043900094F8703143B9D4F86C512DB1284630F0FF
:1043A00093FC284620F0C0FB204670BD54D316086D
:1043B000687B16082030160838B5104B0446036099
:1043C00000F5004393F8542342B9D3F850532DB16C
:1043D000284630F079FC284620F0A6FB04F5A043DF
:1043E000074AD3F8900BC3F8E82908B120F0A2FBE4
:1043F0002046FFF767FF204638BD00BF14A8150808
:1044000004F7160810B5C8F063FE064C064B18609A
:104410002046FFF7BBFC2046044A0549BDE8104092
:104420002CF1CEBCB831003030C2003028690130E8
:10443000B94302080120704790F888308B4286BF4C
:1044400000EB8100D0F88C000020704790F8883095
:104450008B4286BF00EB8100D0F88C0000207047B3
:10446000FA207047014B93F8420F7047B861003053
:10447000034BD3F83C0C431E58425841704700BFD1
:10448000B8810030034BD3F83C0C831E584258418E
:10449000704700BFB8810030034BD3F82C0C08B133
:1044A000B8F010BB01487047B8810030D4A8150897
:1044B00070B5D0E90632514E044642F4E05243F45E
:1044C000F843C261026A836142F4E0520262D6F8A4
:1044D000080C03681B6898470238192816D8DFE8CB
:1044E00000F0840D0D0D0D0D150D15151584158499
:1044F0000D0D0D0D840D84151515150DD4E907232B
:1045000042F4C04243F4C043E26123623C488EF06F
:1045100081FC18B1A36943F08063A36138488EF031
:1045200023FC18B1E36943F08063E36134488EF003
:1045300079FC18B9236A43F080632362314B1D680C
:1045400045B11921284663F0DDFA18B1A36943F497
:104550008073A36196F82C38DB070DD5E36943F42B
:104560008073E36145B11921284663F019FB18B146
:10457000236A43F480732362234B93F954218AB155
:10458000D4E9061242F0800241F08001E261A161AB
:1045900093F9542132B193F82C221AB1226A42F0D5
:1045A0008002226293F85031013B012B0BD8D4E9F1
:1045B000062343F4800342F48002E361236AA2618C
:1045C00043F480032362A36943F08043A361E3695A
:1045D00043F08043E361D6F82C3C93F8C5301BB917
:1045E000236A43F08043236270BDE36943F40053C0
:1045F000E361236A43F4005387E700BFB8810030CA
:10460000747200308CC50030B8B1003013B54FF46F
:104610005070CDE9002120F081FA044628B1DDE98F
:10462000002179F0EBFB024B2360204602B010BD65
:1046300030AB15080020704770470000032070471A
:104640000820704710B5154CD4F8080C03681B6897
:10465000984707281CD8032834BF10231823D4F800
:104660002C2C43F0400022B192F8D9200AB143F03B
:10467000C00040F0010010BD0B280DD8DFE800F0AD
:1046800006060C060C060C060C0C0C061823E6E7B6
:104690001038C3B20B2BEFD91023E0E7B8810030FC
:1046A000014B93F8440F7047B8610030034B93F906
:1046B000A00A003818BF0120704700BFB871003051
:1046C000014B93F9460F7047B86100307047000006
:1046D00038B5C5780B4604463522352D4FF000011C
:1046E000184628BF352530F1E7FA04F10C012A46B7
:1046F000BDE8384030F196BA00B5002389B0029386
:104700000393049305930693079317F03DFD02A9C5
:1047100017F050FBA0B117F037FD00F5587005AB4E
:1047200007C883E8070018463AF0C6FDF1EE047AA0
:1047300020EE270AFCEEC07ACDED017A9DF8040048
:1047400009B05DF804FB00001FB5184C94F81E1763
:1047500004F5B96014F080FF78B194F81E1704F5E1
:10476000B96015F0E7F940B194F81E1704F5B96087
:1047700004B0BDE8104015F025BA00230193029360
:10478000039317F001FD01A917F014FB20B101A854
:104790003AF092FD04B010BD27F0F6FAB02290F87E
:1047A000D83202FB030090ED350AF3E7B861003020
:1047B00008B50D4BD3F82C0CA8B1443070F00CFFA9
:1047C0000346B7EE001A9E2093ED000ADFED070ABC
:1047D00034F0BCFCDFED067A20EE270ABDEEC00AFD
:1047E00010EE103A18B208BDB88100300000000089
:1047F0000000C8422DE9F04FDFF8D8808DB00446A4
:10480000334F042508F5804617F8019BB8F99C3F03
:1048100009F1FF3A43FA0AF3D90742D5207C72F036
:1048200063FD8346207C73F087FC00F121039B45E8
:1048300005D2207C0DB0BDE8F04F71F091BFBAF108
:10484000030F2ED8DFE80AF00234393ED6F8F4061A
:1048500003689B68984700F1A4035A69D3F800A045
:10486000D3F804E0D8681969D3F818C008925A6AD6
:104870001B6ACDF825206222CDF82930212306902D
:104880000791C221207CCDF80CA0CDF810E0CDF826
:1048900014C08DF82490CDE90032192303AA72F0D8
:1048A000A1FD013D15F0FF05AED10DB0BDE8F08FC3
:1048B000D6F8F4060368DB68CCE7D6F8F40603689C
:1048C0001B69C7E7D6F8FC3603F53073C5E700BFB0
:1048D00028AC1508B861003007B50190BEF0C0FFE4
:1048E00028B1019903B05DF804EBBEF075BF03B0C9
:1048F0005DF804FB13B504460748019109F0DAFCA2
:1049000030B90199204602B0BDE8104073F064BE92
:10491000042002B010BD00BF20B60030014809F0ED
:104920005DBA00BF20B600300B4B70B5D3F8A43A87
:1049300005460E461446DB0703D511460748BAF074
:10494000F3FE21460648BFF0E5FC224631462846E4
:10495000BDE8704078F05AB9B871003018B5003031
:10496000B886003010B588B0044675F0EDF80C4BF1
:10497000D3F82C0C38B90B4A0621204608B0BDE804
:10498000104075F0C9B869461E22B8F0A3F86B460E
:10499000054A0621204675F0BFF808B010BD00BFDB
:1049A000B881003020A91508096B1808034A92F84D
:1049B0001038013382F8103874F0E4B8B881003050
:1049C0000148B3F04DBC00BF0CB3003007B508463A
:1049D00001911FF03FFD38B10448019902F0E0FF5A
:1049E000002003B05DF804FB0420FAE734C2003075
:1049F000014803F0BBBD00BFB8310030014803F0EF
:104A000063BD00BFB8310030F8B58B8B06460C464D
:104A10001746CD2B15D10E4D95F8051805F294705B
:104A20007EF0D8FA68B195F8051805F294707EF01A
:104A3000D9FA30B9DFED070A94ED020A064802F010
:104A40008FFF3A4621463046BDE8F84074F02CB955
:104A5000B8A100300000000034C20030162A10B4A3
:104A60000C4605D0542A03D05DF8044B73F0D0BD3A
:104A70000323012023705DF8044B7047074B10B5EA
:104A800040F6CD3493F9B82840F6CD13002A08BF7C
:104A90001C4674F02DF8204310BD00BFB8A10030B3
:104AA00010B5044620F040F8204610BD10B50C4C5F
:104AB00094F9FC3B002B0FDBD4F8080C03685B6C0B
:104AC000984758B9D4F8080C03681B6C984700281D
:104AD0000CBF0220032010BD0120FCE70420FAE7F0
:104AE000B881003008B5134B93F8FD0B10F020008F
:104AF0001ED0D3F8080C03685B6D984707EE900A48
:104B0000F2EE046AB8EE677ADFED0B7A27EE277AC9
:104B1000DFED0A7AB4EEE77AF1EE10FA58BFB0EEA4
:104B2000677AC7EE267AFCEEE77A17EE903A98B2EB
:104B300008BD00BFB88100300AD7233C00FF7F4783
:104B400010B44C69012C05D101465DF8044B0348B3
:104B500003F040BD5DF8044B74F02EB8B83100305E
:104B60002DE9F341B1F9043006460C461546002BF9
:104B700035DB1C4F4FF000089FED1B0A4FF47A7392
:104B8000CDE90028B1F90220D7F8141878F00EFB0F
:104B900001239FED150A3046B4F90020D7F8181804
:104BA000CDE900534FF47A7378F000FB9FED0F0AC4
:104BB0004346B4F90420D7F81C183046CDE9005814
:104BC00078F0F4FA9FED080A4FF47A73B4F90620EE
:104BD000D7F820183046CDE9005878F0E7FA02B04F
:104BE000BDE8F081B88100300000FA4400007A444A
:104BF00008B5094B93F8FD0B10F020000AD0D3F84C
:104C0000080C03681B6D984734F06EFAC82390FBBC
:104C1000F3F0C0B208BD00BFB88100307FB50023FB
:104C200003930493059317F0AFFA03A917F0C2F8A2
:104C3000D8B117F0A9FAD0EDD80A90EDD90AF1EE63
:104C4000600AB1EE400A2DF159F9DFED097A20EE44
:104C5000270A34F0CBF9F6EE007A20EE270AFCEEB4
:104C6000C07ACDED017A9DF8040007B05DF804FB31
:104C7000E02E6542044B187820B9044B93F8FE0BE4
:104C8000C0F38010704700BFBCC30030B881003053
:104C9000124B07B593F8FD0B10F020001AD003F566
:104CA0000053D3F8FC0600F55D703AF005FBDFED2C
:104CB0000C7A20EE270ADFED0B7AB4EEE70AF1EE6C
:104CC00010FA58BFB0EE670AFCEEC07ACDED017A5B
:104CD0009DF8040003B05DF804FB00BFB88100300C
:104CE000CDCC4C3D00007F43094B93F8812162B944
:104CF000A3F5805393F8212C920606D193F9FC3B3F
:104D0000002BACBF0420032070470520704700BF74
:104D1000B891003008B5074B93F9903F032B03D0AF
:104D2000BDE8084074F070BF034A022174F0F4FE3D
:104D3000042008BDB861003038A91508094BD3F824
:104D4000A42A920701D473F057BC03F54053DFED5A
:104D5000067A03F2CC6393ED000AB8EEC00A20EEA7
:104D6000270A7047B87100300AD7233C10B594B0B9
:104D7000044603A81FF068FA1C4B03A9D3F8080CDB
:104D80000368DB6C984778B3002103A81FF026FB6B
:104D900050B3247CC8F03EFE059B9622DDED047ADC
:104DA00057210893069BF8EEE77A9FED117A099355
:104DB000002367EE877A07900B9320460C930D93A0
:104DC0000E930F931093119312934FF6F853CDED6A
:104DD0000A7AADF84C3000238DF84E303323CDE9FC
:104DE000003207AA72F0FEFA14B010BDB88100308C
:104DF0000AD7233C30B5844C05462DED0A8BD4F8F8
:104E0000080C99B003685B6A9847002867D004F5DE
:104E10004054D4F8E43A062B00F2E180DFE803F0D6
:104E200004040463A0C35F00784840F6F8540CF013
:104E300057FF9FED778A9FED770AF0EE489AB0EE24
:104E400048AAF0EE488AF0EE48AAB0EE48BA90EDD3
:104E5000027B90ED005BF7EEC76BB7EEC55B90EDA4
:104E6000047B0BA88DED0B5ACDED0C6AB7EEC77B1A
:104E70008DED0D7A39F002FEB0EE40CAF0EE60BA68
:104E8000B0EE419A2D7CC8F0C5FD00238C22B1EE16
:104E9000499A0B901593F1EE688A16930123B1EEAF
:104EA000488A55218DF85E30332328468DED0CCA93
:104EB000CDED0DBA8DED0E9A8DED0FBACDED10AA98
:104EC000CDED118A8DED12AACDED139A8DED148AD8
:104ED000ADF85C40CDE900320BAA72F083FA19B04C
:104EE000BDEC0A8B30BD49484FF440640CF0F8FE2D
:104EF0009FED480A90ED027B90ED005BF7EEC76BEB
:104F0000B7EEC55B90ED047B0BA88DED0B5ACDED94
:104F10000C6AB7EEC77B8DED0D7A39F0AFFD3B48DB
:104F2000F0EE60BAB0EE419AB0EE40CA0CF0DCFE92
:104F30009FED380A39F0A2FD3448B0EE40BAF0EEE9
:104F400060AAF0EE418A0CF0D3FE9FED320A39F0F0
:104F500095FDF0EE609AB0EE40AAB0EE418A91E77E
:104F60002A4840F607440CF0BFFE9FED2A0A39F0AC
:104F700085FD2648B0EE40BA9FED259AF0EE60AA76
:104F8000F0EE418A0CF0B4FE9FED220AF0EE49BA31
:104F900039F074FDB0EE49CAB0EE40AAF0EE609A66
:104FA000B0EE418A6EE7194840F63F44DFED188ABB
:104FB0000CF09EFE9FED170A39F060FDF0EE68AA36
:104FC000B0EE40AAF0EE609AB0EE418AB0EE68BA58
:104FD000B0EE689AF0EE68BAB0EE68CA52E79FED9C
:104FE0000C8A0024F0EE489AB0EE48AAF0EE488A07
:104FF000F0EE48AAB0EE48BAB0EE489AF0EE48BAE1
:10500000B0EE48CA3EE700BFB881003060BC003057
:10501000000000000AD7233C2DE9F041414D044631
:105020002DED088B95F8FD3B8CB0990675D505F5EF
:105030000057DFED3D8A9FED3D0AD7F8F406483072
:1050400039F01CFD8DED041A21EE281AD5F8086CF4
:10505000CDED030A20EEA8AA8DED020A3046BDEE82
:10506000C11A94F8108060EE28AA11EE103A1DB211
:1050700033681B6D984707EE900A3046F8EEE77AE2
:1050800067EEA87AFDEEE77A17EE903A1CB2336825
:105090005B6D984707EE900AD7F8FC36B8EE678A42
:1050A000DFED237A986828EE288A93EDD89BB4EE3A
:1050B000E78AF1EE10FA58BFB0EE678AB6F0B4F89E
:1050C0003368B0EE40BA30469B6D9847B7EECBBA26
:1050D000BCEEC88A0023B72220EE280A39EE4B9B8B
:1050E000089318EE103A3E214046CDED05AAB7EEE2
:1050F000C99BADF82C301A238DED06AA8DED090A57
:1051000029EE289AADF82850ADF82A40CDE90032B2
:1051100005AA8DED079A72F065F90CB0BDEC088B0D
:10512000BDE8F081B88100300AD7233C9F0CB3451D
:1051300000FF7F471B4B2DE9F04F2DED028BD3F87D
:10514000F4368DB0047CD3F860805F6E9E6EDD6EA9
:1051500093ED1C8AD3F874B0D3F878A0D3F8B89044
:10516000C8F058FC00231622029053218DF82C30F1
:10517000252320468DED078ACDF820B0CDF824A058
:10518000CDF82890CDF80C80049705960695CDE9CA
:10519000003202AA72F026F90DB0BDEC028BBDE818
:1051A000F08F00BFB8A1003070B58A7A06464B7AFE
:1051B0000C4643EA0223CA7A43EA02439D2B1BD1E1
:1051C000104D95F8051805F294707DF003FF98B125
:1051D00095F8051805F294707DF004FF60B9D4EDE0
:1051E000057A9FED090AF8EEE77ADFED080A08482C
:1051F00027EE800A02F0B4FB21463046BDE870403D
:1052000073F0C0BBB8A100300AD7233C00000000F7
:1052100034C2003010B52DED048B84B016F0B4FF0D
:10522000044668461FF010F86946204616F006FD51
:10523000134B93F8FD0B10F020001DD003F5005325
:10524000DDED017AD3F8FC36B8EEE79A986893ED75
:10525000D88BB5F0E9FFB7EEC00ADFED0A7A38EE79
:10526000408BB7EEC88B38EE098A28EE278ABDEE50
:10527000C88A18EE103A18B204B0BDEC048B10BD09
:10528000B88100300AD7233C054BD3F82C3C2BB116
:1052900093F8CE00002808BF022070470220704714
:1052A000B881003008B5034BD3F8080C03681B68BD
:1052B000984708BDB8810030024B93F8FD0BC0F34E
:1052C00040107047B881003070B52C4E05460C4632
:1052D000D6F8080C2DED028B036886B091ED018A9B
:1052E0005B6A984750B9BDEEC88A18EE103ADB07E2
:1052F00004D4022006B0BDEC028B70BDD4E90401D9
:1053000035F048FA0028F4D002A81EF09DFF02AA4A
:105310002146284677F05CFE0028EAD0184902A80A
:105320001FF0A4F803460028E3D1DFED160A024679
:10533000009002A9B0EE600A13480CF0C9FAD8B187
:10534000D6F8080C03685B6A9847044608B1002049
:10535000D0E7022204210D4806F0A0F860B1DFED8D
:10536000090A2346224602A9B0EE600A06480094C4
:105370000CF0AEFA0028EAD10420BBE7B881003077
:1053800080A800300000000060BC0030B831003060
:1053900008B591F82030032B1CD1D1ED027A9FED96
:1053A0000E7AF0EEE77A91ED060A0C4BF4EEC77A2E
:1053B000DFED0B7AD3F8080C20EE270AF1EE10FA95
:1053C0004CBF0121002113F083F9002814BF0020F5
:1053D000042008BD0220FCE700000034B881003042
:1053E0000000C84210B52DED028BD1ED007A82B0DD
:1053F0000C46F5EEC07AF1EE10FA04DA042002B0A1
:10540000BDEC028B10BD9FED197AF4EEC77AF1EE78
:1054100010FAF3D891ED030A9FED158AF0EEC07AE9
:10542000F4EEC87AF1EE10FA19D5D4ED037A1148EA
:10543000F4EEC87AD4ED027AD4ED010AFDEEE77AF3
:1054400094ED000AF1EE10FACDED017AACBF012225
:1054500000229DF9041002F013FA0020CFE7F7EEC6
:10546000000A33F01DFD0028C8D0DEE70000B44379
:105470000000003434C2003091ED010AB5EEC00ADC
:1054800008B5F1EE10FA01DC042008BD9FED107A9A
:10549000D1ED007A20EE070A9FED0E7A0E4BF4EE66
:1054A000C77AD3F8080CF1EE10FA036805DD5B6EDD
:1054B00098470028E8D00020E7E79FED087AF4EE4F
:1054C000C77AF1EE10FACCBF1B6EDB6DF0E700BFC0
:1054D0000000C8429A993940B88100303333F33F15
:1054E00008B5022203210A4805F0D8FF70B1084828
:1054F0000121FDF75DFA074890F8A834012B03D08D
:1055000000F2A4403DF06CF8002000E0042008BD4B
:10551000B8310030B8B1003010B5D1ED007AFCEEF2
:10552000E77A17EE903A9CB2012C02D0022C06D0FA
:105530004CB92146054886F0AFFB002010BD044859
:1055400003F032FEF9E70420F8E700BF30AA00308C
:10555000B83100301FB5D1ED017A0B7CFCEEE77A53
:10556000CDED027AD1ED007A0093FCEEE77AD1ED31
:10557000030A91ED020A01469DF80830CDED037A49
:105580009DF80C20024811F073FC05B05DF804FB97
:10559000B831003013B513480C46BEF075F8F0B1C1
:1055A000D4ED017AFCEEE77ACDED017A9DF80400A6
:1055B000012807D002280CD088B90B4B83F8E604E9
:1055C00002B010BD94ED020A0648BEF06FF800204C
:1055D000F6E794ED030A0348BEF0A8F8F7E70420C5
:1055E000EEE700BF90860030B881003010B50A4C5D
:1055F00094F8213CDB070CD402220521A4F5A0403D
:1056000005F04CFF28B90222A4F5A040114605F090
:1056100045FF002010BD00BFB881003010B5D1EDAE
:10562000007A0446FCEEE77A17EE903A13F0FF0397
:105630000FD10F4BD3F8080C03681B6F984708B1C4
:10564000002010BD0B4A2046062174F065FA0420A4
:10565000F7E7012B09D1064BD3F8080C03685B6F01
:1056600098470028ECD1044AEDE70220E9E700BFA3
:10567000B88100305CA915086CA9150801F10C036C
:105680009FED0A7AF1EC017AF4EE677AF1EE10FA06
:105690000AD6F0EEE77AF4EEC77AF1EE10FA03DC00
:1056A0009942EFD1012070470020704700007A44F2
:1056B00030B5002305462DED028B8DB00393049386
:1056C000059316F061FD03A916F074FB58B316F0AC
:1056D0005BFD00F5587306AC2D7C93E8070084E869
:1056E0000700DDED060A9DED070AF1EE600AB1EE56
:1056F000400A2CF103FC2046B0EE408A39F0DCFD74
:10570000089B0122DFED0A7AA8210B930C2328EED7
:10571000278A28468DED0A0ACDE9003209AA8DEDC7
:10572000098A71F05FFE0DB0BDEC028B30BD00BF89
:10573000E02E65422729F7B505460E4613D00AD854
:1057400019290ED024291CD03146284603B0BDE8C3
:10575000F04077F0CDBF3D291DD0A1F13F03012BD3
:10576000F2D8012405E0122171F00CF8044618B9B2
:105770000024204603B0F0BD297C1A4869F088F85F
:10578000F7E70C2170F0FEFF04460028F0D0284611
:10579000FFF78EFFEDE7262170F0F4FF04460028A6
:1057A000E6D0297C10489AF0E7FF104B1F68002FC5
:1057B000DFD02621284670F0E5FF04460028D8D027
:1057C00000230DF1060231462846ADF8063075F08B
:1057D00091FB0028CDD0BDF806203846297C97F0F3
:1057E000F9F8C6E770AA0030F8B30030D8D000301E
:1057F00038B5184C0D4694F8213CDB070AD4D4F890
:105800002C3C93F8D9303BB9012204F6F400114640
:10581000FCF72CFF002038BD94F9FC3B0222002B42
:1058200012DA0521A4F5A04005F038FE0028F1D0D9
:1058300095ED000A0121DFED087AD4F8080C20EE7E
:10584000270A12F045FFE5E70921A4F5A04005F07D
:1058500025FEDFE7B88100300000C84210B5214CBA
:1058600094F8213CDB070ED4D4F82C3C93F8D930C3
:105870004BB194F9FC3B002B07DA0122082104F616
:10588000F400FCF7AFFF002010BDD1ED007A9FEDD2
:10589000167AF0EEE77AF4EEC77AF1EE10FA0BD54D
:1058A00002221121114805F0F9FDA0B902220F488A
:1058B000114605F0F3FDE6E7D4F8080C03681B6811
:1058C00098470428DFD0D4F8080C03681B68984771
:1058D0001428E5D1D7E740F6C411054809F078FC53
:1058E000D1E700BFB881003000000034B83100308B
:1058F00004BB003073B58B8B05460C46C02B75D0AE
:105900002CD8542B00F0818014D8162B09D8102BDA
:1059100009D9113B052B06D8DFE803F08D05059763
:105920009A77202B49D02146284602B0BDE8704026
:1059300079F006B8B22B3BD009D8552B00F08880FF
:10594000732BF0D102B0BDE87040FFF74BBDBD2B0B
:10595000E9D10221414807F013F871E04AF21146FB
:10596000B3425ED013D8D12B4AD008D8C12B42D035
:10597000D02BD8D102B0BDE87040FFF7CDBDB3F554
:10598000967FD0D102B0BDE87040FFF7A9BD4AF2C2
:105990001346B34240D04AF26866B34246D04AF258
:1059A0001246B342BFD102B0BDE87040FFF720BF3E
:1059B00002B0BDE87040FFF75FBDD1ED007AF5EEB3
:1059C000C07AF1EE10FA46DD9FED257AF4EEC77A43
:1059D000F1EE10FA3FD8FCEEE77A224ACDED017ADB
:1059E0009DF80430A2F8023500202CE002B0BDE89A
:1059F0007040FFF769BC02B0BDE87040FFF70EBE13
:105A000002B0BDE87040FFF7A5BD2146284602B0B0
:105A1000BDE87040FFF7BCBC02B0BDE87040FFF7C6
:105A20001DBF02B0BDE87040FFF7E0BD02B0BDE8A9
:105A30007040FFF7AFBD022205210B4805F02EFD97
:105A40000028D1D1042002B070BD02220621F4E763
:105A500002220921F1E70220F5E700BF20B600305D
:105A600000007F43B8810030B8310030F6EE007A94
:105A700008B591ED007AB4EEE77AF1EE10FA06DDA2
:105A8000012205210348FCF7ADFE002008BD0420DB
:105A9000FCE700BFAC8A00302DE9F0472DED028B0A
:105AA0008A7AA2B04B7A05460C4643EA0223CA7AA8
:105AB00043EA0243562B00F0D1810DD8522B1CD063
:105AC000542B00F0A9802146284622B0BDEC028B61
:105AD000BDE8F04779F058B903F18073863B23F0B5
